{
	"contracts/SimpleStorage.sol": {
		"SimpleStorage": {
			"abi": [
				{
					"inputs": [],
					"name": "add",
					"outputs": [
						{
							"internalType": "uint256",
							"name": "",
							"type": "uint256"
						}
					],
					"stateMutability": "pure",
					"type": "function"
				},
				{
					"inputs": [
						{
							"internalType": "string",
							"name": "_name",
							"type": "string"
						},
						{
							"internalType": "uint256",
							"name": "_favoriteNumber",
							"type": "uint256"
						}
					],
					"name": "addPerson",
					"outputs": [],
					"stateMutability": "nonpayable",
					"type": "function"
				},
				{
					"inputs": [],
					"name": "favoriteNumber",
					"outputs": [
						{
							"internalType": "uint256",
							"name": "",
							"type": "uint256"
						}
					],
					"stateMutability": "view",
					"type": "function"
				},
				{
					"inputs": [
						{
							"internalType": "uint256",
							"name": "",
							"type": "uint256"
						}
					],
					"name": "favoriteNumbersList",
					"outputs": [
						{
							"internalType": "uint256",
							"name": "",
							"type": "uint256"
						}
					],
					"stateMutability": "view",
					"type": "function"
				},
				{
					"inputs": [
						{
							"internalType": "string",
							"name": "",
							"type": "string"
						}
					],
					"name": "nameToFavoriteNumber",
					"outputs": [
						{
							"internalType": "uint256",
							"name": "",
							"type": "uint256"
						}
					],
					"stateMutability": "view",
					"type": "function"
				},
				{
					"inputs": [
						{
							"internalType": "uint256",
							"name": "",
							"type": "uint256"
						}
					],
					"name": "people",
					"outputs": [
						{
							"internalType": "uint256",
							"name": "favoriteNumber",
							"type": "uint256"
						},
						{
							"internalType": "string",
							"name": "name",
							"type": "string"
						}
					],
					"stateMutability": "view",
					"type": "function"
				},
				{
					"inputs": [],
					"name": "person",
					"outputs": [
						{
							"internalType": "uint256",
							"name": "favoriteNumber",
							"type": "uint256"
						},
						{
							"internalType": "string",
							"name": "name",
							"type": "string"
						}
					],
					"stateMutability": "view",
					"type": "function"
				},
				{
					"inputs": [],
					"name": "retrieve",
					"outputs": [
						{
							"internalType": "uint256",
							"name": "",
							"type": "uint256"
						}
					],
					"stateMutability": "view",
					"type": "function"
				},
				{
					"inputs": [
						{
							"internalType": "uint256",
							"name": "_favoriteNumber",
							"type": "uint256"
						}
					],
					"name": "store",
					"outputs": [],
					"stateMutability": "nonpayable",
					"type": "function"
				}
			],
			"devdoc": {
				"kind": "dev",
				"methods": {},
				"version": 1
			},
			"evm": {
				"assembly": "    /* \"contracts/SimpleStorage.sol\":57:1807  contract SimpleStorage {... */\n  mstore(0x40, 0x80)\n    /* \"contracts/SimpleStorage.sol\":371:374  123 */\n  0x7b\n    /* \"contracts/SimpleStorage.sol\":342:374  uint public favoriteNumber = 123 */\n  0x00\n  sstore\n    /* \"contracts/SimpleStorage.sol\":469:512  People({favoriteNumber: 123, name: \"John\"}) */\n  mload(0x40)\n  dup1\n  0x40\n  add\n  0x40\n  mstore\n  dup1\n    /* \"contracts/SimpleStorage.sol\":493:496  123 */\n  0x7b\n    /* \"contracts/SimpleStorage.sol\":469:512  People({favoriteNumber: 123, name: \"John\"}) */\n  dup2\n  mstore\n  0x20\n  add\n  mload(0x40)\n  dup1\n  0x40\n  add\n  0x40\n  mstore\n  dup1\n  0x04\n  dup2\n  mstore\n  0x20\n  add\n  0x4a6f686e00000000000000000000000000000000000000000000000000000000\n  dup2\n  mstore\n  pop\n  dup2\n  mstore\n  pop\n    /* \"contracts/SimpleStorage.sol\":446:512  People public person = People({favoriteNumber: 123, name: \"John\"}) */\n  0x01\n  0x00\n  dup3\n  add\n  mload\n  dup2\n  0x00\n  add\n  sstore\n  0x20\n  dup3\n  add\n  mload\n  dup2\n  0x01\n  add\n  swap1\n  dup2\n  tag_1\n  swap2\n  swap1\n  tag_2\n  jump\t// in\ntag_1:\n  pop\n  pop\n  pop\n    /* \"contracts/SimpleStorage.sol\":57:1807  contract SimpleStorage {... */\n  callvalue\n  dup1\n  iszero\n  tag_3\n  jumpi\n  0x00\n  dup1\n  revert\ntag_3:\n  pop\n  jump(tag_4)\n    /* \"#utility.yul\":7:106   */\ntag_5:\n    /* \"#utility.yul\":59:65   */\n  0x00\n    /* \"#utility.yul\":93:98   */\n  dup2\n    /* \"#utility.yul\":87:99   */\n  mload\n    /* \"#utility.yul\":77:99   */\n  swap1\n  pop\n    /* \"#utility.yul\":7:106   */\n  swap2\n  swap1\n  pop\n  jump\t// out\n    /* \"#utility.yul\":112:292   */\ntag_6:\n    /* \"#utility.yul\":160:237   */\n  0x4e487b7100000000000000000000000000000000000000000000000000000000\n    /* \"#utility.yul\":157:158   */\n  0x00\n    /* \"#utility.yul\":150:238   */\n  mstore\n    /* \"#utility.yul\":257:261   */\n  0x41\n    /* \"#utility.yul\":254:255   */\n  0x04\n    /* \"#utility.yul\":247:262   */\n  mstore\n    /* \"#utility.yul\":281:285   */\n  0x24\n    /* \"#utility.yul\":278:279   */\n  0x00\n    /* \"#utility.yul\":271:286   */\n  revert\n    /* \"#utility.yul\":298:478   */\ntag_7:\n    /* \"#utility.yul\":346:423   */\n  0x4e487b7100000000000000000000000000000000000000000000000000000000\n    /* \"#utility.yul\":343:344   */\n  0x00\n    /* \"#utility.yul\":336:424   */\n  mstore\n    /* \"#utility.yul\":443:447   */\n  0x22\n    /* \"#utility.yul\":440:441   */\n  0x04\n    /* \"#utility.yul\":433:448   */\n  mstore\n    /* \"#utility.yul\":467:471   */\n  0x24\n    /* \"#utility.yul\":464:465   */\n  0x00\n    /* \"#utility.yul\":457:472   */\n  revert\n    /* \"#utility.yul\":484:804   */\ntag_8:\n    /* \"#utility.yul\":528:534   */\n  0x00\n    /* \"#utility.yul\":565:566   */\n  0x02\n    /* \"#utility.yul\":559:563   */\n  dup3\n    /* \"#utility.yul\":555:567   */\n  div\n    /* \"#utility.yul\":545:567   */\n  swap1\n  pop\n    /* \"#utility.yul\":612:613   */\n  0x01\n    /* \"#utility.yul\":606:610   */\n  dup3\n    /* \"#utility.yul\":602:614   */\n  and\n    /* \"#utility.yul\":633:651   */\n  dup1\n    /* \"#utility.yul\":623:704   */\n  tag_30\n  jumpi\n    /* \"#utility.yul\":689:693   */\n  0x7f\n    /* \"#utility.yul\":681:687   */\n  dup3\n    /* \"#utility.yul\":677:694   */\n  and\n    /* \"#utility.yul\":667:694   */\n  swap2\n  pop\n    /* \"#utility.yul\":623:704   */\ntag_30:\n    /* \"#utility.yul\":751:753   */\n  0x20\n    /* \"#utility.yul\":743:749   */\n  dup3\n    /* \"#utility.yul\":740:754   */\n  lt\n    /* \"#utility.yul\":720:738   */\n  dup2\n    /* \"#utility.yul\":717:755   */\n  sub\n    /* \"#utility.yul\":714:798   */\n  tag_31\n  jumpi\n    /* \"#utility.yul\":770:788   */\n  tag_32\n  tag_7\n  jump\t// in\ntag_32:\n    /* \"#utility.yul\":714:798   */\ntag_31:\n    /* \"#utility.yul\":535:804   */\n  pop\n    /* \"#utility.yul\":484:804   */\n  swap2\n  swap1\n  pop\n  jump\t// out\n    /* \"#utility.yul\":810:951   */\ntag_9:\n    /* \"#utility.yul\":859:863   */\n  0x00\n    /* \"#utility.yul\":882:885   */\n  dup2\n    /* \"#utility.yul\":874:885   */\n  swap1\n  pop\n    /* \"#utility.yul\":905:908   */\n  dup2\n    /* \"#utility.yul\":902:903   */\n  0x00\n    /* \"#utility.yul\":895:909   */\n  mstore\n    /* \"#utility.yul\":939:943   */\n  0x20\n    /* \"#utility.yul\":936:937   */\n  0x00\n    /* \"#utility.yul\":926:944   */\n  keccak256\n    /* \"#utility.yul\":918:944   */\n  swap1\n  pop\n    /* \"#utility.yul\":810:951   */\n  swap2\n  swap1\n  pop\n  jump\t// out\n    /* \"#utility.yul\":957:1050   */\ntag_10:\n    /* \"#utility.yul\":994:1000   */\n  0x00\n    /* \"#utility.yul\":1041:1043   */\n  0x20\n    /* \"#utility.yul\":1036:1038   */\n  0x1f\n    /* \"#utility.yul\":1029:1034   */\n  dup4\n    /* \"#utility.yul\":1025:1039   */\n  add\n    /* \"#utility.yul\":1021:1044   */\n  div\n    /* \"#utility.yul\":1011:1044   */\n  swap1\n  pop\n    /* \"#utility.yul\":957:1050   */\n  swap2\n  swap1\n  pop\n  jump\t// out\n    /* \"#utility.yul\":1056:1163   */\ntag_11:\n    /* \"#utility.yul\":1100:1108   */\n  0x00\n    /* \"#utility.yul\":1150:1155   */\n  dup3\n    /* \"#utility.yul\":1144:1148   */\n  dup3\n    /* \"#utility.yul\":1140:1156   */\n  shl\n    /* \"#utility.yul\":1119:1156   */\n  swap1\n  pop\n    /* \"#utility.yul\":1056:1163   */\n  swap3\n  swap2\n  pop\n  pop\n  jump\t// out\n    /* \"#utility.yul\":1169:1562   */\ntag_12:\n    /* \"#utility.yul\":1238:1244   */\n  0x00\n    /* \"#utility.yul\":1288:1289   */\n  0x08\n    /* \"#utility.yul\":1276:1286   */\n  dup4\n    /* \"#utility.yul\":1272:1290   */\n  mul\n    /* \"#utility.yul\":1311:1408   */\n  tag_37\n    /* \"#utility.yul\":1341:1407   */\n  0xffffffffffffffffffffffffffffffffffffffffffffffffffffffffffffffff\n    /* \"#utility.yul\":1330:1339   */\n  dup3\n    /* \"#utility.yul\":1311:1408   */\n  tag_11\n  jump\t// in\ntag_37:\n    /* \"#utility.yul\":1429:1468   */\n  tag_38\n    /* \"#utility.yul\":1459:1467   */\n  dup7\n    /* \"#utility.yul\":1448:1457   */\n  dup4\n    /* \"#utility.yul\":1429:1468   */\n  tag_11\n  jump\t// in\ntag_38:\n    /* \"#utility.yul\":1417:1468   */\n  swap6\n  pop\n    /* \"#utility.yul\":1501:1505   */\n  dup1\n    /* \"#utility.yul\":1497:1506   */\n  not\n    /* \"#utility.yul\":1490:1495   */\n  dup5\n    /* \"#utility.yul\":1486:1507   */\n  and\n    /* \"#utility.yul\":1477:1507   */\n  swap4\n  pop\n    /* \"#utility.yul\":1550:1554   */\n  dup1\n    /* \"#utility.yul\":1540:1548   */\n  dup7\n    /* \"#utility.yul\":1536:1555   */\n  and\n    /* \"#utility.yul\":1529:1534   */\n  dup5\n    /* \"#utility.yul\":1526:1556   */\n  or\n    /* \"#utility.yul\":1516:1556   */\n  swap3\n  pop\n    /* \"#utility.yul\":1245:1562   */\n  pop\n  pop\n    /* \"#utility.yul\":1169:1562   */\n  swap4\n  swap3\n  pop\n  pop\n  pop\n  jump\t// out\n    /* \"#utility.yul\":1568:1645   */\ntag_13:\n    /* \"#utility.yul\":1605:1612   */\n  0x00\n    /* \"#utility.yul\":1634:1639   */\n  dup2\n    /* \"#utility.yul\":1623:1639   */\n  swap1\n  pop\n    /* \"#utility.yul\":1568:1645   */\n  swap2\n  swap1\n  pop\n  jump\t// out\n    /* \"#utility.yul\":1651:1711   */\ntag_14:\n    /* \"#utility.yul\":1679:1682   */\n  0x00\n    /* \"#utility.yul\":1700:1705   */\n  dup2\n    /* \"#utility.yul\":1693:1705   */\n  swap1\n  pop\n    /* \"#utility.yul\":1651:1711   */\n  swap2\n  swap1\n  pop\n  jump\t// out\n    /* \"#utility.yul\":1717:1859   */\ntag_15:\n    /* \"#utility.yul\":1767:1776   */\n  0x00\n    /* \"#utility.yul\":1800:1853   */\n  tag_42\n    /* \"#utility.yul\":1818:1852   */\n  tag_43\n    /* \"#utility.yul\":1827:1851   */\n  tag_44\n    /* \"#utility.yul\":1845:1850   */\n  dup5\n    /* \"#utility.yul\":1827:1851   */\n  tag_13\n  jump\t// in\ntag_44:\n    /* \"#utility.yul\":1818:1852   */\n  tag_14\n  jump\t// in\ntag_43:\n    /* \"#utility.yul\":1800:1853   */\n  tag_13\n  jump\t// in\ntag_42:\n    /* \"#utility.yul\":1787:1853   */\n  swap1\n  pop\n    /* \"#utility.yul\":1717:1859   */\n  swap2\n  swap1\n  pop\n  jump\t// out\n    /* \"#utility.yul\":1865:1940   */\ntag_16:\n    /* \"#utility.yul\":1908:1911   */\n  0x00\n    /* \"#utility.yul\":1929:1934   */\n  dup2\n    /* \"#utility.yul\":1922:1934   */\n  swap1\n  pop\n    /* \"#utility.yul\":1865:1940   */\n  swap2\n  swap1\n  pop\n  jump\t// out\n    /* \"#utility.yul\":1946:2215   */\ntag_17:\n    /* \"#utility.yul\":2056:2095   */\n  tag_47\n    /* \"#utility.yul\":2087:2094   */\n  dup4\n    /* \"#utility.yul\":2056:2095   */\n  tag_15\n  jump\t// in\ntag_47:\n    /* \"#utility.yul\":2117:2208   */\n  tag_48\n    /* \"#utility.yul\":2166:2207   */\n  tag_49\n    /* \"#utility.yul\":2190:2206   */\n  dup3\n    /* \"#utility.yul\":2166:2207   */\n  tag_16\n  jump\t// in\ntag_49:\n    /* \"#utility.yul\":2158:2164   */\n  dup5\n    /* \"#utility.yul\":2151:2155   */\n  dup5\n    /* \"#utility.yul\":2145:2156   */\n  sload\n    /* \"#utility.yul\":2117:2208   */\n  tag_12\n  jump\t// in\ntag_48:\n    /* \"#utility.yul\":2111:2115   */\n  dup3\n    /* \"#utility.yul\":2104:2209   */\n  sstore\n    /* \"#utility.yul\":2022:2215   */\n  pop\n    /* \"#utility.yul\":1946:2215   */\n  pop\n  pop\n  pop\n  jump\t// out\n    /* \"#utility.yul\":2221:2294   */\ntag_18:\n    /* \"#utility.yul\":2266:2269   */\n  0x00\n    /* \"#utility.yul\":2221:2294   */\n  swap1\n  jump\t// out\n    /* \"#utility.yul\":2300:2489   */\ntag_19:\n    /* \"#utility.yul\":2377:2409   */\n  tag_52\n  tag_18\n  jump\t// in\ntag_52:\n    /* \"#utility.yul\":2418:2483   */\n  tag_53\n    /* \"#utility.yul\":2476:2482   */\n  dup2\n    /* \"#utility.yul\":2468:2474   */\n  dup5\n    /* \"#utility.yul\":2462:2466   */\n  dup5\n    /* \"#utility.yul\":2418:2483   */\n  tag_17\n  jump\t// in\ntag_53:\n    /* \"#utility.yul\":2353:2489   */\n  pop\n    /* \"#utility.yul\":2300:2489   */\n  pop\n  pop\n  jump\t// out\n    /* \"#utility.yul\":2495:2681   */\ntag_20:\n    /* \"#utility.yul\":2555:2675   */\ntag_55:\n    /* \"#utility.yul\":2572:2575   */\n  dup2\n    /* \"#utility.yul\":2565:2570   */\n  dup2\n    /* \"#utility.yul\":2562:2576   */\n  lt\n    /* \"#utility.yul\":2555:2675   */\n  iszero\n  tag_57\n  jumpi\n    /* \"#utility.yul\":2626:2665   */\n  tag_58\n    /* \"#utility.yul\":2663:2664   */\n  0x00\n    /* \"#utility.yul\":2656:2661   */\n  dup3\n    /* \"#utility.yul\":2626:2665   */\n  tag_19\n  jump\t// in\ntag_58:\n    /* \"#utility.yul\":2599:2600   */\n  0x01\n    /* \"#utility.yul\":2592:2597   */\n  dup2\n    /* \"#utility.yul\":2588:2601   */\n  add\n    /* \"#utility.yul\":2579:2601   */\n  swap1\n  pop\n    /* \"#utility.yul\":2555:2675   */\n  jump(tag_55)\ntag_57:\n    /* \"#utility.yul\":2495:2681   */\n  pop\n  pop\n  jump\t// out\n    /* \"#utility.yul\":2687:3230   */\ntag_21:\n    /* \"#utility.yul\":2788:2790   */\n  0x1f\n    /* \"#utility.yul\":2783:2786   */\n  dup3\n    /* \"#utility.yul\":2780:2791   */\n  gt\n    /* \"#utility.yul\":2777:3223   */\n  iszero\n  tag_60\n  jumpi\n    /* \"#utility.yul\":2822:2860   */\n  tag_61\n    /* \"#utility.yul\":2854:2859   */\n  dup2\n    /* \"#utility.yul\":2822:2860   */\n  tag_9\n  jump\t// in\ntag_61:\n    /* \"#utility.yul\":2906:2935   */\n  tag_62\n    /* \"#utility.yul\":2924:2934   */\n  dup5\n    /* \"#utility.yul\":2906:2935   */\n  tag_10\n  jump\t// in\ntag_62:\n    /* \"#utility.yul\":2896:2904   */\n  dup2\n    /* \"#utility.yul\":2892:2936   */\n  add\n    /* \"#utility.yul\":3089:3091   */\n  0x20\n    /* \"#utility.yul\":3077:3087   */\n  dup6\n    /* \"#utility.yul\":3074:3092   */\n  lt\n    /* \"#utility.yul\":3071:3120   */\n  iszero\n  tag_63\n  jumpi\n    /* \"#utility.yul\":3110:3118   */\n  dup2\n    /* \"#utility.yul\":3095:3118   */\n  swap1\n  pop\n    /* \"#utility.yul\":3071:3120   */\ntag_63:\n    /* \"#utility.yul\":3133:3213   */\n  tag_64\n    /* \"#utility.yul\":3189:3211   */\n  tag_65\n    /* \"#utility.yul\":3207:3210   */\n  dup6\n    /* \"#utility.yul\":3189:3211   */\n  tag_10\n  jump\t// in\ntag_65:\n    /* \"#utility.yul\":3179:3187   */\n  dup4\n    /* \"#utility.yul\":3175:3212   */\n  add\n    /* \"#utility.yul\":3162:3173   */\n  dup3\n    /* \"#utility.yul\":3133:3213   */\n  tag_20\n  jump\t// in\ntag_64:\n    /* \"#utility.yul\":2792:3223   */\n  pop\n  pop\n    /* \"#utility.yul\":2777:3223   */\ntag_60:\n    /* \"#utility.yul\":2687:3230   */\n  pop\n  pop\n  pop\n  jump\t// out\n    /* \"#utility.yul\":3236:3353   */\ntag_22:\n    /* \"#utility.yul\":3290:3298   */\n  0x00\n    /* \"#utility.yul\":3340:3345   */\n  dup3\n    /* \"#utility.yul\":3334:3338   */\n  dup3\n    /* \"#utility.yul\":3330:3346   */\n  shr\n    /* \"#utility.yul\":3309:3346   */\n  swap1\n  pop\n    /* \"#utility.yul\":3236:3353   */\n  swap3\n  swap2\n  pop\n  pop\n  jump\t// out\n    /* \"#utility.yul\":3359:3528   */\ntag_23:\n    /* \"#utility.yul\":3403:3409   */\n  0x00\n    /* \"#utility.yul\":3436:3487   */\n  tag_68\n    /* \"#utility.yul\":3484:3485   */\n  0x00\n    /* \"#utility.yul\":3480:3486   */\n  not\n    /* \"#utility.yul\":3472:3477   */\n  dup5\n    /* \"#utility.yul\":3469:3470   */\n  0x08\n    /* \"#utility.yul\":3465:3478   */\n  mul\n    /* \"#utility.yul\":3436:3487   */\n  tag_22\n  jump\t// in\ntag_68:\n    /* \"#utility.yul\":3432:3488   */\n  not\n    /* \"#utility.yul\":3517:3521   */\n  dup1\n    /* \"#utility.yul\":3511:3515   */\n  dup4\n    /* \"#utility.yul\":3507:3522   */\n  and\n    /* \"#utility.yul\":3497:3522   */\n  swap2\n  pop\n    /* \"#utility.yul\":3410:3528   */\n  pop\n    /* \"#utility.yul\":3359:3528   */\n  swap3\n  swap2\n  pop\n  pop\n  jump\t// out\n    /* \"#utility.yul\":3533:3828   */\ntag_24:\n    /* \"#utility.yul\":3609:3613   */\n  0x00\n    /* \"#utility.yul\":3755:3784   */\n  tag_70\n    /* \"#utility.yul\":3780:3783   */\n  dup4\n    /* \"#utility.yul\":3774:3778   */\n  dup4\n    /* \"#utility.yul\":3755:3784   */\n  tag_23\n  jump\t// in\ntag_70:\n    /* \"#utility.yul\":3747:3784   */\n  swap2\n  pop\n    /* \"#utility.yul\":3817:3820   */\n  dup3\n    /* \"#utility.yul\":3814:3815   */\n  0x02\n    /* \"#utility.yul\":3810:3821   */\n  mul\n    /* \"#utility.yul\":3804:3808   */\n  dup3\n    /* \"#utility.yul\":3801:3822   */\n  or\n    /* \"#utility.yul\":3793:3822   */\n  swap1\n  pop\n    /* \"#utility.yul\":3533:3828   */\n  swap3\n  swap2\n  pop\n  pop\n  jump\t// out\n    /* \"#utility.yul\":3833:5228   */\ntag_2:\n    /* \"#utility.yul\":3950:3987   */\n  tag_72\n    /* \"#utility.yul\":3983:3986   */\n  dup3\n    /* \"#utility.yul\":3950:3987   */\n  tag_5\n  jump\t// in\ntag_72:\n    /* \"#utility.yul\":4052:4070   */\n  0xffffffffffffffff\n    /* \"#utility.yul\":4044:4050   */\n  dup2\n    /* \"#utility.yul\":4041:4071   */\n  gt\n    /* \"#utility.yul\":4038:4094   */\n  iszero\n  tag_73\n  jumpi\n    /* \"#utility.yul\":4074:4092   */\n  tag_74\n  tag_6\n  jump\t// in\ntag_74:\n    /* \"#utility.yul\":4038:4094   */\ntag_73:\n    /* \"#utility.yul\":4118:4156   */\n  tag_75\n    /* \"#utility.yul\":4150:4154   */\n  dup3\n    /* \"#utility.yul\":4144:4155   */\n  sload\n    /* \"#utility.yul\":4118:4156   */\n  tag_8\n  jump\t// in\ntag_75:\n    /* \"#utility.yul\":4203:4270   */\n  tag_76\n    /* \"#utility.yul\":4263:4269   */\n  dup3\n    /* \"#utility.yul\":4255:4261   */\n  dup3\n    /* \"#utility.yul\":4249:4253   */\n  dup6\n    /* \"#utility.yul\":4203:4270   */\n  tag_21\n  jump\t// in\ntag_76:\n    /* \"#utility.yul\":4297:4298   */\n  0x00\n    /* \"#utility.yul\":4321:4325   */\n  0x20\n    /* \"#utility.yul\":4308:4325   */\n  swap1\n  pop\n    /* \"#utility.yul\":4353:4355   */\n  0x1f\n    /* \"#utility.yul\":4345:4351   */\n  dup4\n    /* \"#utility.yul\":4342:4356   */\n  gt\n    /* \"#utility.yul\":4370:4371   */\n  0x01\n    /* \"#utility.yul\":4365:4983   */\n  dup2\n  eq\n  tag_78\n  jumpi\n    /* \"#utility.yul\":5027:5028   */\n  0x00\n    /* \"#utility.yul\":5044:5050   */\n  dup5\n    /* \"#utility.yul\":5041:5118   */\n  iszero\n  tag_79\n  jumpi\n    /* \"#utility.yul\":5093:5102   */\n  dup3\n    /* \"#utility.yul\":5088:5091   */\n  dup8\n    /* \"#utility.yul\":5084:5103   */\n  add\n    /* \"#utility.yul\":5078:5104   */\n  mload\n    /* \"#utility.yul\":5069:5104   */\n  swap1\n  pop\n    /* \"#utility.yul\":5041:5118   */\ntag_79:\n    /* \"#utility.yul\":5144:5211   */\n  tag_80\n    /* \"#utility.yul\":5204:5210   */\n  dup6\n    /* \"#utility.yul\":5197:5202   */\n  dup3\n    /* \"#utility.yul\":5144:5211   */\n  tag_24\n  jump\t// in\ntag_80:\n    /* \"#utility.yul\":5138:5142   */\n  dup7\n    /* \"#utility.yul\":5131:5212   */\n  sstore\n    /* \"#utility.yul\":5000:5222   */\n  pop\n    /* \"#utility.yul\":4335:5222   */\n  jump(tag_77)\n    /* \"#utility.yul\":4365:4983   */\ntag_78:\n    /* \"#utility.yul\":4417:4421   */\n  0x1f\n    /* \"#utility.yul\":4413:4422   */\n  not\n    /* \"#utility.yul\":4405:4411   */\n  dup5\n    /* \"#utility.yul\":4401:4423   */\n  and\n    /* \"#utility.yul\":4451:4488   */\n  tag_81\n    /* \"#utility.yul\":4483:4487   */\n  dup7\n    /* \"#utility.yul\":4451:4488   */\n  tag_9\n  jump\t// in\ntag_81:\n    /* \"#utility.yul\":4510:4511   */\n  0x00\n    /* \"#utility.yul\":4524:4732   */\ntag_82:\n    /* \"#utility.yul\":4538:4545   */\n  dup3\n    /* \"#utility.yul\":4535:4536   */\n  dup2\n    /* \"#utility.yul\":4532:4546   */\n  lt\n    /* \"#utility.yul\":4524:4732   */\n  iszero\n  tag_84\n  jumpi\n    /* \"#utility.yul\":4617:4626   */\n  dup5\n    /* \"#utility.yul\":4612:4615   */\n  dup10\n    /* \"#utility.yul\":4608:4627   */\n  add\n    /* \"#utility.yul\":4602:4628   */\n  mload\n    /* \"#utility.yul\":4594:4600   */\n  dup3\n    /* \"#utility.yul\":4587:4629   */\n  sstore\n    /* \"#utility.yul\":4668:4669   */\n  0x01\n    /* \"#utility.yul\":4660:4666   */\n  dup3\n    /* \"#utility.yul\":4656:4670   */\n  add\n    /* \"#utility.yul\":4646:4670   */\n  swap2\n  pop\n    /* \"#utility.yul\":4715:4717   */\n  0x20\n    /* \"#utility.yul\":4704:4713   */\n  dup6\n    /* \"#utility.yul\":4700:4718   */\n  add\n    /* \"#utility.yul\":4687:4718   */\n  swap5\n  pop\n    /* \"#utility.yul\":4561:4565   */\n  0x20\n    /* \"#utility.yul\":4558:4559   */\n  dup2\n    /* \"#utility.yul\":4554:4566   */\n  add\n    /* \"#utility.yul\":4549:4566   */\n  swap1\n  pop\n    /* \"#utility.yul\":4524:4732   */\n  jump(tag_82)\ntag_84:\n    /* \"#utility.yul\":4760:4766   */\n  dup7\n    /* \"#utility.yul\":4751:4758   */\n  dup4\n    /* \"#utility.yul\":4748:4767   */\n  lt\n    /* \"#utility.yul\":4745:4924   */\n  iszero\n  tag_85\n  jumpi\n    /* \"#utility.yul\":4818:4827   */\n  dup5\n    /* \"#utility.yul\":4813:4816   */\n  dup10\n    /* \"#utility.yul\":4809:4828   */\n  add\n    /* \"#utility.yul\":4803:4829   */\n  mload\n    /* \"#utility.yul\":4861:4909   */\n  tag_86\n    /* \"#utility.yul\":4903:4907   */\n  0x1f\n    /* \"#utility.yul\":4895:4901   */\n  dup10\n    /* \"#utility.yul\":4891:4908   */\n  and\n    /* \"#utility.yul\":4880:4889   */\n  dup3\n    /* \"#utility.yul\":4861:4909   */\n  tag_23\n  jump\t// in\ntag_86:\n    /* \"#utility.yul\":4853:4859   */\n  dup4\n    /* \"#utility.yul\":4846:4910   */\n  sstore\n    /* \"#utility.yul\":4768:4924   */\n  pop\n    /* \"#utility.yul\":4745:4924   */\ntag_85:\n    /* \"#utility.yul\":4970:4971   */\n  0x01\n    /* \"#utility.yul\":4966:4967   */\n  0x02\n    /* \"#utility.yul\":4958:4964   */\n  dup9\n    /* \"#utility.yul\":4954:4968   */\n  mul\n    /* \"#utility.yul\":4950:4972   */\n  add\n    /* \"#utility.yul\":4944:4948   */\n  dup9\n    /* \"#utility.yul\":4937:4973   */\n  sstore\n    /* \"#utility.yul\":4372:4983   */\n  pop\n  pop\n  pop\n    /* \"#utility.yul\":4335:5222   */\ntag_77:\n  pop\n    /* \"#utility.yul\":3925:5228   */\n  pop\n  pop\n  pop\n    /* \"#utility.yul\":3833:5228   */\n  pop\n  pop\n  jump\t// out\n    /* \"contracts/SimpleStorage.sol\":57:1807  contract SimpleStorage {... */\ntag_4:\n  dataSize(sub_0)\n  dup1\n  dataOffset(sub_0)\n  0x00\n  codecopy\n  0x00\n  return\nstop\n\nsub_0: assembly {\n        /* \"contracts/SimpleStorage.sol\":57:1807  contract SimpleStorage {... */\n      mstore(0x40, 0x80)\n      callvalue\n      dup1\n      iszero\n      tag_1\n      jumpi\n      0x00\n      dup1\n      revert\n    tag_1:\n      pop\n      jumpi(tag_2, lt(calldatasize, 0x04))\n      shr(0xe0, calldataload(0x00))\n      dup1\n      0x6f760f41\n      gt\n      tag_12\n      jumpi\n      dup1\n      0x6f760f41\n      eq\n      tag_7\n      jumpi\n      dup1\n      0x77ec2b55\n      eq\n      tag_8\n      jumpi\n      dup1\n      0x8bab8dd5\n      eq\n      tag_9\n      jumpi\n      dup1\n      0x9e7a13ad\n      eq\n      tag_10\n      jumpi\n      dup1\n      0xcb321447\n      eq\n      tag_11\n      jumpi\n      jump(tag_2)\n    tag_12:\n      dup1\n      0x2e64cec1\n      eq\n      tag_3\n      jumpi\n      dup1\n      0x471f7cdf\n      eq\n      tag_4\n      jumpi\n      dup1\n      0x4f2be91f\n      eq\n      tag_5\n      jumpi\n      dup1\n      0x6057361d\n      eq\n      tag_6\n      jumpi\n    tag_2:\n      0x00\n      dup1\n      revert\n        /* \"contracts/SimpleStorage.sol\":1475:1593  function retrieve() public view returns (uint256) {... */\n    tag_3:\n      tag_13\n      tag_14\n      jump\t// in\n    tag_13:\n      mload(0x40)\n      tag_15\n      swap2\n      swap1\n      tag_16\n      jump\t// in\n    tag_15:\n      mload(0x40)\n      dup1\n      swap2\n      sub\n      swap1\n      return\n        /* \"contracts/SimpleStorage.sol\":342:374  uint public favoriteNumber = 123 */\n    tag_4:\n      tag_17\n      tag_18\n      jump\t// in\n    tag_17:\n      mload(0x40)\n      tag_19\n      swap2\n      swap1\n      tag_16\n      jump\t// in\n    tag_19:\n      mload(0x40)\n      dup1\n      swap2\n      sub\n      swap1\n      return\n        /* \"contracts/SimpleStorage.sol\":1680:1805  function add() public pure returns (uint256) {... */\n    tag_5:\n      tag_20\n      tag_21\n      jump\t// in\n    tag_20:\n      mload(0x40)\n      tag_22\n      swap2\n      swap1\n      tag_16\n      jump\t// in\n    tag_22:\n      mload(0x40)\n      dup1\n      swap2\n      sub\n      swap1\n      return\n        /* \"contracts/SimpleStorage.sol\":860:1135  function store(uint256 _favoriteNumber) public {... */\n    tag_6:\n      tag_23\n      0x04\n      dup1\n      calldatasize\n      sub\n      dup2\n      add\n      swap1\n      tag_24\n      swap2\n      swap1\n      tag_25\n      jump\t// in\n    tag_24:\n      tag_26\n      jump\t// in\n    tag_23:\n      stop\n        /* \"contracts/SimpleStorage.sol\":1141:1388  function addPerson(string memory _name, uint256 _favoriteNumber) public {... */\n    tag_7:\n      tag_27\n      0x04\n      dup1\n      calldatasize\n      sub\n      dup2\n      add\n      swap1\n      tag_28\n      swap2\n      swap1\n      tag_29\n      jump\t// in\n    tag_28:\n      tag_30\n      jump\t// in\n    tag_27:\n      stop\n        /* \"contracts/SimpleStorage.sol\":446:512  People public person = People({favoriteNumber: 123, name: \"John\"}) */\n    tag_8:\n      tag_31\n      tag_32\n      jump\t// in\n    tag_31:\n      mload(0x40)\n      tag_33\n      swap3\n      swap2\n      swap1\n      tag_34\n      jump\t// in\n    tag_33:\n      mload(0x40)\n      dup1\n      swap2\n      sub\n      swap1\n      return\n        /* \"contracts/SimpleStorage.sol\":533:587  mapping(string => uint256) public nameToFavoriteNumber */\n    tag_9:\n      tag_35\n      0x04\n      dup1\n      calldatasize\n      sub\n      dup2\n      add\n      swap1\n      tag_36\n      swap2\n      swap1\n      tag_37\n      jump\t// in\n    tag_36:\n      tag_38\n      jump\t// in\n    tag_35:\n      mload(0x40)\n      tag_39\n      swap2\n      swap1\n      tag_16\n      jump\t// in\n    tag_39:\n      mload(0x40)\n      dup1\n      swap2\n      sub\n      swap1\n      return\n        /* \"contracts/SimpleStorage.sol\":733:755  People[] public people */\n    tag_10:\n      tag_40\n      0x04\n      dup1\n      calldatasize\n      sub\n      dup2\n      add\n      swap1\n      tag_41\n      swap2\n      swap1\n      tag_25\n      jump\t// in\n    tag_41:\n      tag_42\n      jump\t// in\n    tag_40:\n      mload(0x40)\n      tag_43\n      swap3\n      swap2\n      swap1\n      tag_34\n      jump\t// in\n    tag_43:\n      mload(0x40)\n      dup1\n      swap2\n      sub\n      swap1\n      return\n        /* \"contracts/SimpleStorage.sol\":691:727  uint256[] public favoriteNumbersList */\n    tag_11:\n      tag_44\n      0x04\n      dup1\n      calldatasize\n      sub\n      dup2\n      add\n      swap1\n      tag_45\n      swap2\n      swap1\n      tag_25\n      jump\t// in\n    tag_45:\n      tag_46\n      jump\t// in\n    tag_44:\n      mload(0x40)\n      tag_47\n      swap2\n      swap1\n      tag_16\n      jump\t// in\n    tag_47:\n      mload(0x40)\n      dup1\n      swap2\n      sub\n      swap1\n      return\n        /* \"contracts/SimpleStorage.sol\":1475:1593  function retrieve() public view returns (uint256) {... */\n    tag_14:\n        /* \"contracts/SimpleStorage.sol\":1516:1523  uint256 */\n      0x00\n        /* \"contracts/SimpleStorage.sol\":1572:1586  favoriteNumber */\n      dup1\n      sload\n        /* \"contracts/SimpleStorage.sol\":1565:1586  return favoriteNumber */\n      swap1\n      pop\n        /* \"contracts/SimpleStorage.sol\":1475:1593  function retrieve() public view returns (uint256) {... */\n      swap1\n      jump\t// out\n        /* \"contracts/SimpleStorage.sol\":342:374  uint public favoriteNumber = 123 */\n    tag_18:\n      sload(0x00)\n      dup2\n      jump\t// out\n        /* \"contracts/SimpleStorage.sol\":1680:1805  function add() public pure returns (uint256) {... */\n    tag_21:\n        /* \"contracts/SimpleStorage.sol\":1716:1723  uint256 */\n      0x00\n        /* \"contracts/SimpleStorage.sol\":1793:1798  1 + 1 */\n      0x02\n        /* \"contracts/SimpleStorage.sol\":1786:1798  return 1 + 1 */\n      swap1\n      pop\n        /* \"contracts/SimpleStorage.sol\":1680:1805  function add() public pure returns (uint256) {... */\n      swap1\n      jump\t// out\n        /* \"contracts/SimpleStorage.sol\":860:1135  function store(uint256 _favoriteNumber) public {... */\n    tag_26:\n        /* \"contracts/SimpleStorage.sol\":934:949  _favoriteNumber */\n      dup1\n        /* \"contracts/SimpleStorage.sol\":917:931  favoriteNumber */\n      0x00\n        /* \"contracts/SimpleStorage.sol\":917:949  favoriteNumber = _favoriteNumber */\n      dup2\n      swap1\n      sstore\n      pop\n        /* \"contracts/SimpleStorage.sol\":860:1135  function store(uint256 _favoriteNumber) public {... */\n      pop\n      jump\t// out\n        /* \"contracts/SimpleStorage.sol\":1141:1388  function addPerson(string memory _name, uint256 _favoriteNumber) public {... */\n    tag_30:\n        /* \"contracts/SimpleStorage.sol\":1223:1229  people */\n      0x05\n        /* \"contracts/SimpleStorage.sol\":1235:1265  People(_favoriteNumber, _name) */\n      mload(0x40)\n      dup1\n      0x40\n      add\n      0x40\n      mstore\n      dup1\n        /* \"contracts/SimpleStorage.sol\":1242:1257  _favoriteNumber */\n      dup4\n        /* \"contracts/SimpleStorage.sol\":1235:1265  People(_favoriteNumber, _name) */\n      dup2\n      mstore\n      0x20\n      add\n        /* \"contracts/SimpleStorage.sol\":1259:1264  _name */\n      dup5\n        /* \"contracts/SimpleStorage.sol\":1235:1265  People(_favoriteNumber, _name) */\n      dup2\n      mstore\n      pop\n        /* \"contracts/SimpleStorage.sol\":1223:1266  people.push(People(_favoriteNumber, _name)) */\n      swap1\n      dup1\n      0x01\n      dup2\n      sload\n      add\n      dup1\n      dup3\n      sstore\n      dup1\n      swap2\n      pop\n      pop\n      0x01\n      swap1\n      sub\n      swap1\n      0x00\n      mstore\n      keccak256(0x00, 0x20)\n      swap1\n      0x02\n      mul\n      add\n      0x00\n      swap1\n      swap2\n      swap1\n      swap2\n      swap1\n      swap2\n      pop\n      0x00\n      dup3\n      add\n      mload\n      dup2\n      0x00\n      add\n      sstore\n      0x20\n      dup3\n      add\n      mload\n      dup2\n      0x01\n      add\n      swap1\n      dup2\n      tag_53\n      swap2\n      swap1\n      tag_54\n      jump\t// in\n    tag_53:\n      pop\n      pop\n      pop\n        /* \"contracts/SimpleStorage.sol\":1276:1295  favoriteNumbersList */\n      0x04\n        /* \"contracts/SimpleStorage.sol\":1301:1316  _favoriteNumber */\n      dup2\n        /* \"contracts/SimpleStorage.sol\":1276:1317  favoriteNumbersList.push(_favoriteNumber) */\n      swap1\n      dup1\n      0x01\n      dup2\n      sload\n      add\n      dup1\n      dup3\n      sstore\n      dup1\n      swap2\n      pop\n      pop\n      0x01\n      swap1\n      sub\n      swap1\n      0x00\n      mstore\n      keccak256(0x00, 0x20)\n      add\n      0x00\n      swap1\n      swap2\n      swap1\n      swap2\n      swap1\n      swap2\n      pop\n      sstore\n        /* \"contracts/SimpleStorage.sol\":1366:1381  _favoriteNumber */\n      dup1\n        /* \"contracts/SimpleStorage.sol\":1336:1356  nameToFavoriteNumber */\n      0x03\n        /* \"contracts/SimpleStorage.sol\":1357:1362  _name */\n      dup4\n        /* \"contracts/SimpleStorage.sol\":1336:1363  nameToFavoriteNumber[_name] */\n      mload(0x40)\n      tag_56\n      swap2\n      swap1\n      tag_57\n      jump\t// in\n    tag_56:\n      swap1\n      dup2\n      mstore\n      0x20\n      add\n      mload(0x40)\n      dup1\n      swap2\n      sub\n      swap1\n      keccak256\n        /* \"contracts/SimpleStorage.sol\":1336:1381  nameToFavoriteNumber[_name] = _favoriteNumber */\n      dup2\n      swap1\n      sstore\n      pop\n        /* \"contracts/SimpleStorage.sol\":1141:1388  function addPerson(string memory _name, uint256 _favoriteNumber) public {... */\n      pop\n      pop\n      jump\t// out\n        /* \"contracts/SimpleStorage.sol\":446:512  People public person = People({favoriteNumber: 123, name: \"John\"}) */\n    tag_32:\n      0x01\n      dup1\n      0x00\n      add\n      sload\n      swap1\n      dup1\n      0x01\n      add\n      dup1\n      sload\n      tag_58\n      swap1\n      tag_59\n      jump\t// in\n    tag_58:\n      dup1\n      0x1f\n      add\n      0x20\n      dup1\n      swap2\n      div\n      mul\n      0x20\n      add\n      mload(0x40)\n      swap1\n      dup2\n      add\n      0x40\n      mstore\n      dup1\n      swap3\n      swap2\n      swap1\n      dup2\n      dup2\n      mstore\n      0x20\n      add\n      dup3\n      dup1\n      sload\n      tag_60\n      swap1\n      tag_59\n      jump\t// in\n    tag_60:\n      dup1\n      iszero\n      tag_61\n      jumpi\n      dup1\n      0x1f\n      lt\n      tag_62\n      jumpi\n      0x0100\n      dup1\n      dup4\n      sload\n      div\n      mul\n      dup4\n      mstore\n      swap2\n      0x20\n      add\n      swap2\n      jump(tag_61)\n    tag_62:\n      dup3\n      add\n      swap2\n      swap1\n      0x00\n      mstore\n      keccak256(0x00, 0x20)\n      swap1\n    tag_63:\n      dup2\n      sload\n      dup2\n      mstore\n      swap1\n      0x01\n      add\n      swap1\n      0x20\n      add\n      dup1\n      dup4\n      gt\n      tag_63\n      jumpi\n      dup3\n      swap1\n      sub\n      0x1f\n      and\n      dup3\n      add\n      swap2\n    tag_61:\n      pop\n      pop\n      pop\n      pop\n      pop\n      swap1\n      pop\n      dup3\n      jump\t// out\n        /* \"contracts/SimpleStorage.sol\":533:587  mapping(string => uint256) public nameToFavoriteNumber */\n    tag_38:\n      0x03\n      dup2\n      dup1\n      mload\n      0x20\n      dup2\n      add\n      dup3\n      add\n      dup1\n      mload\n      dup5\n      dup3\n      mstore\n      0x20\n      dup4\n      add\n      0x20\n      dup6\n      add\n      keccak256\n      dup2\n      dup4\n      mstore\n      dup1\n      swap6\n      pop\n      pop\n      pop\n      pop\n      pop\n      pop\n      0x00\n      swap2\n      pop\n      swap1\n      pop\n      sload\n      dup2\n      jump\t// out\n        /* \"contracts/SimpleStorage.sol\":733:755  People[] public people */\n    tag_42:\n      0x05\n      dup2\n      dup2\n      sload\n      dup2\n      lt\n      tag_64\n      jumpi\n      0x00\n      dup1\n      revert\n    tag_64:\n      swap1\n      0x00\n      mstore\n      keccak256(0x00, 0x20)\n      swap1\n      0x02\n      mul\n      add\n      0x00\n      swap2\n      pop\n      swap1\n      pop\n      dup1\n      0x00\n      add\n      sload\n      swap1\n      dup1\n      0x01\n      add\n      dup1\n      sload\n      tag_66\n      swap1\n      tag_59\n      jump\t// in\n    tag_66:\n      dup1\n      0x1f\n      add\n      0x20\n      dup1\n      swap2\n      div\n      mul\n      0x20\n      add\n      mload(0x40)\n      swap1\n      dup2\n      add\n      0x40\n      mstore\n      dup1\n      swap3\n      swap2\n      swap1\n      dup2\n      dup2\n      mstore\n      0x20\n      add\n      dup3\n      dup1\n      sload\n      tag_67\n      swap1\n      tag_59\n      jump\t// in\n    tag_67:\n      dup1\n      iszero\n      tag_68\n      jumpi\n      dup1\n      0x1f\n      lt\n      tag_69\n      jumpi\n      0x0100\n      dup1\n      dup4\n      sload\n      div\n      mul\n      dup4\n      mstore\n      swap2\n      0x20\n      add\n      swap2\n      jump(tag_68)\n    tag_69:\n      dup3\n      add\n      swap2\n      swap1\n      0x00\n      mstore\n      keccak256(0x00, 0x20)\n      swap1\n    tag_70:\n      dup2\n      sload\n      dup2\n      mstore\n      swap1\n      0x01\n      add\n      swap1\n      0x20\n      add\n      dup1\n      dup4\n      gt\n      tag_70\n      jumpi\n      dup3\n      swap1\n      sub\n      0x1f\n      and\n      dup3\n      add\n      swap2\n    tag_68:\n      pop\n      pop\n      pop\n      pop\n      pop\n      swap1\n      pop\n      dup3\n      jump\t// out\n        /* \"contracts/SimpleStorage.sol\":691:727  uint256[] public favoriteNumbersList */\n    tag_46:\n      0x04\n      dup2\n      dup2\n      sload\n      dup2\n      lt\n      tag_71\n      jumpi\n      0x00\n      dup1\n      revert\n    tag_71:\n      swap1\n      0x00\n      mstore\n      keccak256(0x00, 0x20)\n      add\n      0x00\n      swap2\n      pop\n      swap1\n      pop\n      sload\n      dup2\n      jump\t// out\n        /* \"#utility.yul\":7:84   */\n    tag_73:\n        /* \"#utility.yul\":44:51   */\n      0x00\n        /* \"#utility.yul\":73:78   */\n      dup2\n        /* \"#utility.yul\":62:78   */\n      swap1\n      pop\n        /* \"#utility.yul\":7:84   */\n      swap2\n      swap1\n      pop\n      jump\t// out\n        /* \"#utility.yul\":90:208   */\n    tag_74:\n        /* \"#utility.yul\":177:201   */\n      tag_115\n        /* \"#utility.yul\":195:200   */\n      dup2\n        /* \"#utility.yul\":177:201   */\n      tag_73\n      jump\t// in\n    tag_115:\n        /* \"#utility.yul\":172:175   */\n      dup3\n        /* \"#utility.yul\":165:202   */\n      mstore\n        /* \"#utility.yul\":90:208   */\n      pop\n      pop\n      jump\t// out\n        /* \"#utility.yul\":214:436   */\n    tag_16:\n        /* \"#utility.yul\":307:311   */\n      0x00\n        /* \"#utility.yul\":345:347   */\n      0x20\n        /* \"#utility.yul\":334:343   */\n      dup3\n        /* \"#utility.yul\":330:348   */\n      add\n        /* \"#utility.yul\":322:348   */\n      swap1\n      pop\n        /* \"#utility.yul\":358:429   */\n      tag_117\n        /* \"#utility.yul\":426:427   */\n      0x00\n        /* \"#utility.yul\":415:424   */\n      dup4\n        /* \"#utility.yul\":411:428   */\n      add\n        /* \"#utility.yul\":402:408   */\n      dup5\n        /* \"#utility.yul\":358:429   */\n      tag_74\n      jump\t// in\n    tag_117:\n        /* \"#utility.yul\":214:436   */\n      swap3\n      swap2\n      pop\n      pop\n      jump\t// out\n        /* \"#utility.yul\":442:517   */\n    tag_75:\n        /* \"#utility.yul\":475:481   */\n      0x00\n        /* \"#utility.yul\":508:510   */\n      0x40\n        /* \"#utility.yul\":502:511   */\n      mload\n        /* \"#utility.yul\":492:511   */\n      swap1\n      pop\n        /* \"#utility.yul\":442:517   */\n      swap1\n      jump\t// out\n        /* \"#utility.yul\":523:640   */\n    tag_76:\n        /* \"#utility.yul\":632:633   */\n      0x00\n        /* \"#utility.yul\":629:630   */\n      dup1\n        /* \"#utility.yul\":622:634   */\n      revert\n        /* \"#utility.yul\":646:763   */\n    tag_77:\n        /* \"#utility.yul\":755:756   */\n      0x00\n        /* \"#utility.yul\":752:753   */\n      dup1\n        /* \"#utility.yul\":745:757   */\n      revert\n        /* \"#utility.yul\":769:891   */\n    tag_78:\n        /* \"#utility.yul\":842:866   */\n      tag_122\n        /* \"#utility.yul\":860:865   */\n      dup2\n        /* \"#utility.yul\":842:866   */\n      tag_73\n      jump\t// in\n    tag_122:\n        /* \"#utility.yul\":835:840   */\n      dup2\n        /* \"#utility.yul\":832:867   */\n      eq\n        /* \"#utility.yul\":822:885   */\n      tag_123\n      jumpi\n        /* \"#utility.yul\":881:882   */\n      0x00\n        /* \"#utility.yul\":878:879   */\n      dup1\n        /* \"#utility.yul\":871:883   */\n      revert\n        /* \"#utility.yul\":822:885   */\n    tag_123:\n        /* \"#utility.yul\":769:891   */\n      pop\n      jump\t// out\n        /* \"#utility.yul\":897:1036   */\n    tag_79:\n        /* \"#utility.yul\":943:948   */\n      0x00\n        /* \"#utility.yul\":981:987   */\n      dup2\n        /* \"#utility.yul\":968:988   */\n      calldataload\n        /* \"#utility.yul\":959:988   */\n      swap1\n      pop\n        /* \"#utility.yul\":997:1030   */\n      tag_125\n        /* \"#utility.yul\":1024:1029   */\n      dup2\n        /* \"#utility.yul\":997:1030   */\n      tag_78\n      jump\t// in\n    tag_125:\n        /* \"#utility.yul\":897:1036   */\n      swap3\n      swap2\n      pop\n      pop\n      jump\t// out\n        /* \"#utility.yul\":1042:1371   */\n    tag_25:\n        /* \"#utility.yul\":1101:1107   */\n      0x00\n        /* \"#utility.yul\":1150:1152   */\n      0x20\n        /* \"#utility.yul\":1138:1147   */\n      dup3\n        /* \"#utility.yul\":1129:1136   */\n      dup5\n        /* \"#utility.yul\":1125:1148   */\n      sub\n        /* \"#utility.yul\":1121:1153   */\n      slt\n        /* \"#utility.yul\":1118:1237   */\n      iszero\n      tag_127\n      jumpi\n        /* \"#utility.yul\":1156:1235   */\n      tag_128\n      tag_76\n      jump\t// in\n    tag_128:\n        /* \"#utility.yul\":1118:1237   */\n    tag_127:\n        /* \"#utility.yul\":1276:1277   */\n      0x00\n        /* \"#utility.yul\":1301:1354   */\n      tag_129\n        /* \"#utility.yul\":1346:1353   */\n      dup5\n        /* \"#utility.yul\":1337:1343   */\n      dup3\n        /* \"#utility.yul\":1326:1335   */\n      dup6\n        /* \"#utility.yul\":1322:1344   */\n      add\n        /* \"#utility.yul\":1301:1354   */\n      tag_79\n      jump\t// in\n    tag_129:\n        /* \"#utility.yul\":1291:1354   */\n      swap2\n      pop\n        /* \"#utility.yul\":1247:1364   */\n      pop\n        /* \"#utility.yul\":1042:1371   */\n      swap3\n      swap2\n      pop\n      pop\n      jump\t// out\n        /* \"#utility.yul\":1377:1494   */\n    tag_80:\n        /* \"#utility.yul\":1486:1487   */\n      0x00\n        /* \"#utility.yul\":1483:1484   */\n      dup1\n        /* \"#utility.yul\":1476:1488   */\n      revert\n        /* \"#utility.yul\":1500:1617   */\n    tag_81:\n        /* \"#utility.yul\":1609:1610   */\n      0x00\n        /* \"#utility.yul\":1606:1607   */\n      dup1\n        /* \"#utility.yul\":1599:1611   */\n      revert\n        /* \"#utility.yul\":1623:1725   */\n    tag_82:\n        /* \"#utility.yul\":1664:1670   */\n      0x00\n        /* \"#utility.yul\":1715:1717   */\n      0x1f\n        /* \"#utility.yul\":1711:1718   */\n      not\n        /* \"#utility.yul\":1706:1708   */\n      0x1f\n        /* \"#utility.yul\":1699:1704   */\n      dup4\n        /* \"#utility.yul\":1695:1709   */\n      add\n        /* \"#utility.yul\":1691:1719   */\n      and\n        /* \"#utility.yul\":1681:1719   */\n      swap1\n      pop\n        /* \"#utility.yul\":1623:1725   */\n      swap2\n      swap1\n      pop\n      jump\t// out\n        /* \"#utility.yul\":1731:1911   */\n    tag_83:\n        /* \"#utility.yul\":1779:1856   */\n      0x4e487b7100000000000000000000000000000000000000000000000000000000\n        /* \"#utility.yul\":1776:1777   */\n      0x00\n        /* \"#utility.yul\":1769:1857   */\n      mstore\n        /* \"#utility.yul\":1876:1880   */\n      0x41\n        /* \"#utility.yul\":1873:1874   */\n      0x04\n        /* \"#utility.yul\":1866:1881   */\n      mstore\n        /* \"#utility.yul\":1900:1904   */\n      0x24\n        /* \"#utility.yul\":1897:1898   */\n      0x00\n        /* \"#utility.yul\":1890:1905   */\n      revert\n        /* \"#utility.yul\":1917:2198   */\n    tag_84:\n        /* \"#utility.yul\":2000:2027   */\n      tag_135\n        /* \"#utility.yul\":2022:2026   */\n      dup3\n        /* \"#utility.yul\":2000:2027   */\n      tag_82\n      jump\t// in\n    tag_135:\n        /* \"#utility.yul\":1992:1998   */\n      dup2\n        /* \"#utility.yul\":1988:2028   */\n      add\n        /* \"#utility.yul\":2130:2136   */\n      dup2\n        /* \"#utility.yul\":2118:2128   */\n      dup2\n        /* \"#utility.yul\":2115:2137   */\n      lt\n        /* \"#utility.yul\":2094:2112   */\n      0xffffffffffffffff\n        /* \"#utility.yul\":2082:2092   */\n      dup3\n        /* \"#utility.yul\":2079:2113   */\n      gt\n        /* \"#utility.yul\":2076:2138   */\n      or\n        /* \"#utility.yul\":2073:2161   */\n      iszero\n      tag_136\n      jumpi\n        /* \"#utility.yul\":2141:2159   */\n      tag_137\n      tag_83\n      jump\t// in\n    tag_137:\n        /* \"#utility.yul\":2073:2161   */\n    tag_136:\n        /* \"#utility.yul\":2181:2191   */\n      dup1\n        /* \"#utility.yul\":2177:2179   */\n      0x40\n        /* \"#utility.yul\":2170:2192   */\n      mstore\n        /* \"#utility.yul\":1960:2198   */\n      pop\n        /* \"#utility.yul\":1917:2198   */\n      pop\n      pop\n      jump\t// out\n        /* \"#utility.yul\":2204:2333   */\n    tag_85:\n        /* \"#utility.yul\":2238:2244   */\n      0x00\n        /* \"#utility.yul\":2265:2285   */\n      tag_139\n      tag_75\n      jump\t// in\n    tag_139:\n        /* \"#utility.yul\":2255:2285   */\n      swap1\n      pop\n        /* \"#utility.yul\":2294:2327   */\n      tag_140\n        /* \"#utility.yul\":2322:2326   */\n      dup3\n        /* \"#utility.yul\":2314:2320   */\n      dup3\n        /* \"#utility.yul\":2294:2327   */\n      tag_84\n      jump\t// in\n    tag_140:\n        /* \"#utility.yul\":2204:2333   */\n      swap2\n      swap1\n      pop\n      jump\t// out\n        /* \"#utility.yul\":2339:2647   */\n    tag_86:\n        /* \"#utility.yul\":2401:2405   */\n      0x00\n        /* \"#utility.yul\":2491:2509   */\n      0xffffffffffffffff\n        /* \"#utility.yul\":2483:2489   */\n      dup3\n        /* \"#utility.yul\":2480:2510   */\n      gt\n        /* \"#utility.yul\":2477:2533   */\n      iszero\n      tag_142\n      jumpi\n        /* \"#utility.yul\":2513:2531   */\n      tag_143\n      tag_83\n      jump\t// in\n    tag_143:\n        /* \"#utility.yul\":2477:2533   */\n    tag_142:\n        /* \"#utility.yul\":2551:2580   */\n      tag_144\n        /* \"#utility.yul\":2573:2579   */\n      dup3\n        /* \"#utility.yul\":2551:2580   */\n      tag_82\n      jump\t// in\n    tag_144:\n        /* \"#utility.yul\":2543:2580   */\n      swap1\n      pop\n        /* \"#utility.yul\":2635:2639   */\n      0x20\n        /* \"#utility.yul\":2629:2633   */\n      dup2\n        /* \"#utility.yul\":2625:2640   */\n      add\n        /* \"#utility.yul\":2617:2640   */\n      swap1\n      pop\n        /* \"#utility.yul\":2339:2647   */\n      swap2\n      swap1\n      pop\n      jump\t// out\n        /* \"#utility.yul\":2653:2801   */\n    tag_87:\n        /* \"#utility.yul\":2751:2757   */\n      dup3\n        /* \"#utility.yul\":2746:2749   */\n      dup2\n        /* \"#utility.yul\":2741:2744   */\n      dup4\n        /* \"#utility.yul\":2728:2758   */\n      calldatacopy\n        /* \"#utility.yul\":2792:2793   */\n      0x00\n        /* \"#utility.yul\":2783:2789   */\n      dup4\n        /* \"#utility.yul\":2778:2781   */\n      dup4\n        /* \"#utility.yul\":2774:2790   */\n      add\n        /* \"#utility.yul\":2767:2794   */\n      mstore\n        /* \"#utility.yul\":2653:2801   */\n      pop\n      pop\n      pop\n      jump\t// out\n        /* \"#utility.yul\":2807:3232   */\n    tag_88:\n        /* \"#utility.yul\":2885:2890   */\n      0x00\n        /* \"#utility.yul\":2910:2976   */\n      tag_147\n        /* \"#utility.yul\":2926:2975   */\n      tag_148\n        /* \"#utility.yul\":2968:2974   */\n      dup5\n        /* \"#utility.yul\":2926:2975   */\n      tag_86\n      jump\t// in\n    tag_148:\n        /* \"#utility.yul\":2910:2976   */\n      tag_85\n      jump\t// in\n    tag_147:\n        /* \"#utility.yul\":2901:2976   */\n      swap1\n      pop\n        /* \"#utility.yul\":2999:3005   */\n      dup3\n        /* \"#utility.yul\":2992:2997   */\n      dup2\n        /* \"#utility.yul\":2985:3006   */\n      mstore\n        /* \"#utility.yul\":3037:3041   */\n      0x20\n        /* \"#utility.yul\":3030:3035   */\n      dup2\n        /* \"#utility.yul\":3026:3042   */\n      add\n        /* \"#utility.yul\":3075:3078   */\n      dup5\n        /* \"#utility.yul\":3066:3072   */\n      dup5\n        /* \"#utility.yul\":3061:3064   */\n      dup5\n        /* \"#utility.yul\":3057:3073   */\n      add\n        /* \"#utility.yul\":3054:3079   */\n      gt\n        /* \"#utility.yul\":3051:3163   */\n      iszero\n      tag_149\n      jumpi\n        /* \"#utility.yul\":3082:3161   */\n      tag_150\n      tag_81\n      jump\t// in\n    tag_150:\n        /* \"#utility.yul\":3051:3163   */\n    tag_149:\n        /* \"#utility.yul\":3172:3226   */\n      tag_151\n        /* \"#utility.yul\":3219:3225   */\n      dup5\n        /* \"#utility.yul\":3214:3217   */\n      dup3\n        /* \"#utility.yul\":3209:3212   */\n      dup6\n        /* \"#utility.yul\":3172:3226   */\n      tag_87\n      jump\t// in\n    tag_151:\n        /* \"#utility.yul\":2891:3232   */\n      pop\n        /* \"#utility.yul\":2807:3232   */\n      swap4\n      swap3\n      pop\n      pop\n      pop\n      jump\t// out\n        /* \"#utility.yul\":3252:3592   */\n    tag_89:\n        /* \"#utility.yul\":3308:3313   */\n      0x00\n        /* \"#utility.yul\":3357:3360   */\n      dup3\n        /* \"#utility.yul\":3350:3354   */\n      0x1f\n        /* \"#utility.yul\":3342:3348   */\n      dup4\n        /* \"#utility.yul\":3338:3355   */\n      add\n        /* \"#utility.yul\":3334:3361   */\n      slt\n        /* \"#utility.yul\":3324:3446   */\n      tag_153\n      jumpi\n        /* \"#utility.yul\":3365:3444   */\n      tag_154\n      tag_80\n      jump\t// in\n    tag_154:\n        /* \"#utility.yul\":3324:3446   */\n    tag_153:\n        /* \"#utility.yul\":3482:3488   */\n      dup2\n        /* \"#utility.yul\":3469:3489   */\n      calldataload\n        /* \"#utility.yul\":3507:3586   */\n      tag_155\n        /* \"#utility.yul\":3582:3585   */\n      dup5\n        /* \"#utility.yul\":3574:3580   */\n      dup3\n        /* \"#utility.yul\":3567:3571   */\n      0x20\n        /* \"#utility.yul\":3559:3565   */\n      dup7\n        /* \"#utility.yul\":3555:3572   */\n      add\n        /* \"#utility.yul\":3507:3586   */\n      tag_88\n      jump\t// in\n    tag_155:\n        /* \"#utility.yul\":3498:3586   */\n      swap2\n      pop\n        /* \"#utility.yul\":3314:3592   */\n      pop\n        /* \"#utility.yul\":3252:3592   */\n      swap3\n      swap2\n      pop\n      pop\n      jump\t// out\n        /* \"#utility.yul\":3598:4252   */\n    tag_29:\n        /* \"#utility.yul\":3676:3682   */\n      0x00\n        /* \"#utility.yul\":3684:3690   */\n      dup1\n        /* \"#utility.yul\":3733:3735   */\n      0x40\n        /* \"#utility.yul\":3721:3730   */\n      dup4\n        /* \"#utility.yul\":3712:3719   */\n      dup6\n        /* \"#utility.yul\":3708:3731   */\n      sub\n        /* \"#utility.yul\":3704:3736   */\n      slt\n        /* \"#utility.yul\":3701:3820   */\n      iszero\n      tag_157\n      jumpi\n        /* \"#utility.yul\":3739:3818   */\n      tag_158\n      tag_76\n      jump\t// in\n    tag_158:\n        /* \"#utility.yul\":3701:3820   */\n    tag_157:\n        /* \"#utility.yul\":3887:3888   */\n      0x00\n        /* \"#utility.yul\":3876:3885   */\n      dup4\n        /* \"#utility.yul\":3872:3889   */\n      add\n        /* \"#utility.yul\":3859:3890   */\n      calldataload\n        /* \"#utility.yul\":3917:3935   */\n      0xffffffffffffffff\n        /* \"#utility.yul\":3909:3915   */\n      dup2\n        /* \"#utility.yul\":3906:3936   */\n      gt\n        /* \"#utility.yul\":3903:4020   */\n      iszero\n      tag_159\n      jumpi\n        /* \"#utility.yul\":3939:4018   */\n      tag_160\n      tag_77\n      jump\t// in\n    tag_160:\n        /* \"#utility.yul\":3903:4020   */\n    tag_159:\n        /* \"#utility.yul\":4044:4107   */\n      tag_161\n        /* \"#utility.yul\":4099:4106   */\n      dup6\n        /* \"#utility.yul\":4090:4096   */\n      dup3\n        /* \"#utility.yul\":4079:4088   */\n      dup7\n        /* \"#utility.yul\":4075:4097   */\n      add\n        /* \"#utility.yul\":4044:4107   */\n      tag_89\n      jump\t// in\n    tag_161:\n        /* \"#utility.yul\":4034:4107   */\n      swap3\n      pop\n        /* \"#utility.yul\":3830:4117   */\n      pop\n        /* \"#utility.yul\":4156:4158   */\n      0x20\n        /* \"#utility.yul\":4182:4235   */\n      tag_162\n        /* \"#utility.yul\":4227:4234   */\n      dup6\n        /* \"#utility.yul\":4218:4224   */\n      dup3\n        /* \"#utility.yul\":4207:4216   */\n      dup7\n        /* \"#utility.yul\":4203:4225   */\n      add\n        /* \"#utility.yul\":4182:4235   */\n      tag_79\n      jump\t// in\n    tag_162:\n        /* \"#utility.yul\":4172:4235   */\n      swap2\n      pop\n        /* \"#utility.yul\":4127:4245   */\n      pop\n        /* \"#utility.yul\":3598:4252   */\n      swap3\n      pop\n      swap3\n      swap1\n      pop\n      jump\t// out\n        /* \"#utility.yul\":4258:4357   */\n    tag_90:\n        /* \"#utility.yul\":4310:4316   */\n      0x00\n        /* \"#utility.yul\":4344:4349   */\n      dup2\n        /* \"#utility.yul\":4338:4350   */\n      mload\n        /* \"#utility.yul\":4328:4350   */\n      swap1\n      pop\n        /* \"#utility.yul\":4258:4357   */\n      swap2\n      swap1\n      pop\n      jump\t// out\n        /* \"#utility.yul\":4363:4532   */\n    tag_91:\n        /* \"#utility.yul\":4447:4458   */\n      0x00\n        /* \"#utility.yul\":4481:4487   */\n      dup3\n        /* \"#utility.yul\":4476:4479   */\n      dup3\n        /* \"#utility.yul\":4469:4488   */\n      mstore\n        /* \"#utility.yul\":4521:4525   */\n      0x20\n        /* \"#utility.yul\":4516:4519   */\n      dup3\n        /* \"#utility.yul\":4512:4526   */\n      add\n        /* \"#utility.yul\":4497:4526   */\n      swap1\n      pop\n        /* \"#utility.yul\":4363:4532   */\n      swap3\n      swap2\n      pop\n      pop\n      jump\t// out\n        /* \"#utility.yul\":4538:4677   */\n    tag_92:\n        /* \"#utility.yul\":4627:4633   */\n      dup3\n        /* \"#utility.yul\":4622:4625   */\n      dup2\n        /* \"#utility.yul\":4617:4620   */\n      dup4\n        /* \"#utility.yul\":4611:4634   */\n      mcopy\n        /* \"#utility.yul\":4668:4669   */\n      0x00\n        /* \"#utility.yul\":4659:4665   */\n      dup4\n        /* \"#utility.yul\":4654:4657   */\n      dup4\n        /* \"#utility.yul\":4650:4666   */\n      add\n        /* \"#utility.yul\":4643:4670   */\n      mstore\n        /* \"#utility.yul\":4538:4677   */\n      pop\n      pop\n      pop\n      jump\t// out\n        /* \"#utility.yul\":4683:5060   */\n    tag_93:\n        /* \"#utility.yul\":4771:4774   */\n      0x00\n        /* \"#utility.yul\":4799:4838   */\n      tag_167\n        /* \"#utility.yul\":4832:4837   */\n      dup3\n        /* \"#utility.yul\":4799:4838   */\n      tag_90\n      jump\t// in\n    tag_167:\n        /* \"#utility.yul\":4854:4925   */\n      tag_168\n        /* \"#utility.yul\":4918:4924   */\n      dup2\n        /* \"#utility.yul\":4913:4916   */\n      dup6\n        /* \"#utility.yul\":4854:4925   */\n      tag_91\n      jump\t// in\n    tag_168:\n        /* \"#utility.yul\":4847:4925   */\n      swap4\n      pop\n        /* \"#utility.yul\":4934:4999   */\n      tag_169\n        /* \"#utility.yul\":4992:4998   */\n      dup2\n        /* \"#utility.yul\":4987:4990   */\n      dup6\n        /* \"#utility.yul\":4980:4984   */\n      0x20\n        /* \"#utility.yul\":4973:4978   */\n      dup7\n        /* \"#utility.yul\":4969:4985   */\n      add\n        /* \"#utility.yul\":4934:4999   */\n      tag_92\n      jump\t// in\n    tag_169:\n        /* \"#utility.yul\":5024:5053   */\n      tag_170\n        /* \"#utility.yul\":5046:5052   */\n      dup2\n        /* \"#utility.yul\":5024:5053   */\n      tag_82\n      jump\t// in\n    tag_170:\n        /* \"#utility.yul\":5019:5022   */\n      dup5\n        /* \"#utility.yul\":5015:5054   */\n      add\n        /* \"#utility.yul\":5008:5054   */\n      swap2\n      pop\n        /* \"#utility.yul\":4775:5060   */\n      pop\n        /* \"#utility.yul\":4683:5060   */\n      swap3\n      swap2\n      pop\n      pop\n      jump\t// out\n        /* \"#utility.yul\":5066:5489   */\n    tag_34:\n        /* \"#utility.yul\":5207:5211   */\n      0x00\n        /* \"#utility.yul\":5245:5247   */\n      0x40\n        /* \"#utility.yul\":5234:5243   */\n      dup3\n        /* \"#utility.yul\":5230:5248   */\n      add\n        /* \"#utility.yul\":5222:5248   */\n      swap1\n      pop\n        /* \"#utility.yul\":5258:5329   */\n      tag_172\n        /* \"#utility.yul\":5326:5327   */\n      0x00\n        /* \"#utility.yul\":5315:5324   */\n      dup4\n        /* \"#utility.yul\":5311:5328   */\n      add\n        /* \"#utility.yul\":5302:5308   */\n      dup6\n        /* \"#utility.yul\":5258:5329   */\n      tag_74\n      jump\t// in\n    tag_172:\n        /* \"#utility.yul\":5376:5385   */\n      dup2\n        /* \"#utility.yul\":5370:5374   */\n      dup2\n        /* \"#utility.yul\":5366:5386   */\n      sub\n        /* \"#utility.yul\":5361:5363   */\n      0x20\n        /* \"#utility.yul\":5350:5359   */\n      dup4\n        /* \"#utility.yul\":5346:5364   */\n      add\n        /* \"#utility.yul\":5339:5387   */\n      mstore\n        /* \"#utility.yul\":5404:5482   */\n      tag_173\n        /* \"#utility.yul\":5477:5481   */\n      dup2\n        /* \"#utility.yul\":5468:5474   */\n      dup5\n        /* \"#utility.yul\":5404:5482   */\n      tag_93\n      jump\t// in\n    tag_173:\n        /* \"#utility.yul\":5396:5482   */\n      swap1\n      pop\n        /* \"#utility.yul\":5066:5489   */\n      swap4\n      swap3\n      pop\n      pop\n      pop\n      jump\t// out\n        /* \"#utility.yul\":5495:6004   */\n    tag_37:\n        /* \"#utility.yul\":5564:5570   */\n      0x00\n        /* \"#utility.yul\":5613:5615   */\n      0x20\n        /* \"#utility.yul\":5601:5610   */\n      dup3\n        /* \"#utility.yul\":5592:5599   */\n      dup5\n        /* \"#utility.yul\":5588:5611   */\n      sub\n        /* \"#utility.yul\":5584:5616   */\n      slt\n        /* \"#utility.yul\":5581:5700   */\n      iszero\n      tag_175\n      jumpi\n        /* \"#utility.yul\":5619:5698   */\n      tag_176\n      tag_76\n      jump\t// in\n    tag_176:\n        /* \"#utility.yul\":5581:5700   */\n    tag_175:\n        /* \"#utility.yul\":5767:5768   */\n      0x00\n        /* \"#utility.yul\":5756:5765   */\n      dup3\n        /* \"#utility.yul\":5752:5769   */\n      add\n        /* \"#utility.yul\":5739:5770   */\n      calldataload\n        /* \"#utility.yul\":5797:5815   */\n      0xffffffffffffffff\n        /* \"#utility.yul\":5789:5795   */\n      dup2\n        /* \"#utility.yul\":5786:5816   */\n      gt\n        /* \"#utility.yul\":5783:5900   */\n      iszero\n      tag_177\n      jumpi\n        /* \"#utility.yul\":5819:5898   */\n      tag_178\n      tag_77\n      jump\t// in\n    tag_178:\n        /* \"#utility.yul\":5783:5900   */\n    tag_177:\n        /* \"#utility.yul\":5924:5987   */\n      tag_179\n        /* \"#utility.yul\":5979:5986   */\n      dup5\n        /* \"#utility.yul\":5970:5976   */\n      dup3\n        /* \"#utility.yul\":5959:5968   */\n      dup6\n        /* \"#utility.yul\":5955:5977   */\n      add\n        /* \"#utility.yul\":5924:5987   */\n      tag_89\n      jump\t// in\n    tag_179:\n        /* \"#utility.yul\":5914:5987   */\n      swap2\n      pop\n        /* \"#utility.yul\":5710:5997   */\n      pop\n        /* \"#utility.yul\":5495:6004   */\n      swap3\n      swap2\n      pop\n      pop\n      jump\t// out\n        /* \"#utility.yul\":6010:6190   */\n    tag_94:\n        /* \"#utility.yul\":6058:6135   */\n      0x4e487b7100000000000000000000000000000000000000000000000000000000\n        /* \"#utility.yul\":6055:6056   */\n      0x00\n        /* \"#utility.yul\":6048:6136   */\n      mstore\n        /* \"#utility.yul\":6155:6159   */\n      0x22\n        /* \"#utility.yul\":6152:6153   */\n      0x04\n        /* \"#utility.yul\":6145:6160   */\n      mstore\n        /* \"#utility.yul\":6179:6183   */\n      0x24\n        /* \"#utility.yul\":6176:6177   */\n      0x00\n        /* \"#utility.yul\":6169:6184   */\n      revert\n        /* \"#utility.yul\":6196:6516   */\n    tag_59:\n        /* \"#utility.yul\":6240:6246   */\n      0x00\n        /* \"#utility.yul\":6277:6278   */\n      0x02\n        /* \"#utility.yul\":6271:6275   */\n      dup3\n        /* \"#utility.yul\":6267:6279   */\n      div\n        /* \"#utility.yul\":6257:6279   */\n      swap1\n      pop\n        /* \"#utility.yul\":6324:6325   */\n      0x01\n        /* \"#utility.yul\":6318:6322   */\n      dup3\n        /* \"#utility.yul\":6314:6326   */\n      and\n        /* \"#utility.yul\":6345:6363   */\n      dup1\n        /* \"#utility.yul\":6335:6416   */\n      tag_182\n      jumpi\n        /* \"#utility.yul\":6401:6405   */\n      0x7f\n        /* \"#utility.yul\":6393:6399   */\n      dup3\n        /* \"#utility.yul\":6389:6406   */\n      and\n        /* \"#utility.yul\":6379:6406   */\n      swap2\n      pop\n        /* \"#utility.yul\":6335:6416   */\n    tag_182:\n        /* \"#utility.yul\":6463:6465   */\n      0x20\n        /* \"#utility.yul\":6455:6461   */\n      dup3\n        /* \"#utility.yul\":6452:6466   */\n      lt\n        /* \"#utility.yul\":6432:6450   */\n      dup2\n        /* \"#utility.yul\":6429:6467   */\n      sub\n        /* \"#utility.yul\":6426:6510   */\n      tag_183\n      jumpi\n        /* \"#utility.yul\":6482:6500   */\n      tag_184\n      tag_94\n      jump\t// in\n    tag_184:\n        /* \"#utility.yul\":6426:6510   */\n    tag_183:\n        /* \"#utility.yul\":6247:6516   */\n      pop\n        /* \"#utility.yul\":6196:6516   */\n      swap2\n      swap1\n      pop\n      jump\t// out\n        /* \"#utility.yul\":6522:6663   */\n    tag_95:\n        /* \"#utility.yul\":6571:6575   */\n      0x00\n        /* \"#utility.yul\":6594:6597   */\n      dup2\n        /* \"#utility.yul\":6586:6597   */\n      swap1\n      pop\n        /* \"#utility.yul\":6617:6620   */\n      dup2\n        /* \"#utility.yul\":6614:6615   */\n      0x00\n        /* \"#utility.yul\":6607:6621   */\n      mstore\n        /* \"#utility.yul\":6651:6655   */\n      0x20\n        /* \"#utility.yul\":6648:6649   */\n      0x00\n        /* \"#utility.yul\":6638:6656   */\n      keccak256\n        /* \"#utility.yul\":6630:6656   */\n      swap1\n      pop\n        /* \"#utility.yul\":6522:6663   */\n      swap2\n      swap1\n      pop\n      jump\t// out\n        /* \"#utility.yul\":6669:6762   */\n    tag_96:\n        /* \"#utility.yul\":6706:6712   */\n      0x00\n        /* \"#utility.yul\":6753:6755   */\n      0x20\n        /* \"#utility.yul\":6748:6750   */\n      0x1f\n        /* \"#utility.yul\":6741:6746   */\n      dup4\n        /* \"#utility.yul\":6737:6751   */\n      add\n        /* \"#utility.yul\":6733:6756   */\n      div\n        /* \"#utility.yul\":6723:6756   */\n      swap1\n      pop\n        /* \"#utility.yul\":6669:6762   */\n      swap2\n      swap1\n      pop\n      jump\t// out\n        /* \"#utility.yul\":6768:6875   */\n    tag_97:\n        /* \"#utility.yul\":6812:6820   */\n      0x00\n        /* \"#utility.yul\":6862:6867   */\n      dup3\n        /* \"#utility.yul\":6856:6860   */\n      dup3\n        /* \"#utility.yul\":6852:6868   */\n      shl\n        /* \"#utility.yul\":6831:6868   */\n      swap1\n      pop\n        /* \"#utility.yul\":6768:6875   */\n      swap3\n      swap2\n      pop\n      pop\n      jump\t// out\n        /* \"#utility.yul\":6881:7274   */\n    tag_98:\n        /* \"#utility.yul\":6950:6956   */\n      0x00\n        /* \"#utility.yul\":7000:7001   */\n      0x08\n        /* \"#utility.yul\":6988:6998   */\n      dup4\n        /* \"#utility.yul\":6984:7002   */\n      mul\n        /* \"#utility.yul\":7023:7120   */\n      tag_189\n        /* \"#utility.yul\":7053:7119   */\n      0xffffffffffffffffffffffffffffffffffffffffffffffffffffffffffffffff\n        /* \"#utility.yul\":7042:7051   */\n      dup3\n        /* \"#utility.yul\":7023:7120   */\n      tag_97\n      jump\t// in\n    tag_189:\n        /* \"#utility.yul\":7141:7180   */\n      tag_190\n        /* \"#utility.yul\":7171:7179   */\n      dup7\n        /* \"#utility.yul\":7160:7169   */\n      dup4\n        /* \"#utility.yul\":7141:7180   */\n      tag_97\n      jump\t// in\n    tag_190:\n        /* \"#utility.yul\":7129:7180   */\n      swap6\n      pop\n        /* \"#utility.yul\":7213:7217   */\n      dup1\n        /* \"#utility.yul\":7209:7218   */\n      not\n        /* \"#utility.yul\":7202:7207   */\n      dup5\n        /* \"#utility.yul\":7198:7219   */\n      and\n        /* \"#utility.yul\":7189:7219   */\n      swap4\n      pop\n        /* \"#utility.yul\":7262:7266   */\n      dup1\n        /* \"#utility.yul\":7252:7260   */\n      dup7\n        /* \"#utility.yul\":7248:7267   */\n      and\n        /* \"#utility.yul\":7241:7246   */\n      dup5\n        /* \"#utility.yul\":7238:7268   */\n      or\n        /* \"#utility.yul\":7228:7268   */\n      swap3\n      pop\n        /* \"#utility.yul\":6957:7274   */\n      pop\n      pop\n        /* \"#utility.yul\":6881:7274   */\n      swap4\n      swap3\n      pop\n      pop\n      pop\n      jump\t// out\n        /* \"#utility.yul\":7280:7340   */\n    tag_99:\n        /* \"#utility.yul\":7308:7311   */\n      0x00\n        /* \"#utility.yul\":7329:7334   */\n      dup2\n        /* \"#utility.yul\":7322:7334   */\n      swap1\n      pop\n        /* \"#utility.yul\":7280:7340   */\n      swap2\n      swap1\n      pop\n      jump\t// out\n        /* \"#utility.yul\":7346:7488   */\n    tag_100:\n        /* \"#utility.yul\":7396:7405   */\n      0x00\n        /* \"#utility.yul\":7429:7482   */\n      tag_193\n        /* \"#utility.yul\":7447:7481   */\n      tag_194\n        /* \"#utility.yul\":7456:7480   */\n      tag_195\n        /* \"#utility.yul\":7474:7479   */\n      dup5\n        /* \"#utility.yul\":7456:7480   */\n      tag_73\n      jump\t// in\n    tag_195:\n        /* \"#utility.yul\":7447:7481   */\n      tag_99\n      jump\t// in\n    tag_194:\n        /* \"#utility.yul\":7429:7482   */\n      tag_73\n      jump\t// in\n    tag_193:\n        /* \"#utility.yul\":7416:7482   */\n      swap1\n      pop\n        /* \"#utility.yul\":7346:7488   */\n      swap2\n      swap1\n      pop\n      jump\t// out\n        /* \"#utility.yul\":7494:7569   */\n    tag_101:\n        /* \"#utility.yul\":7537:7540   */\n      0x00\n        /* \"#utility.yul\":7558:7563   */\n      dup2\n        /* \"#utility.yul\":7551:7563   */\n      swap1\n      pop\n        /* \"#utility.yul\":7494:7569   */\n      swap2\n      swap1\n      pop\n      jump\t// out\n        /* \"#utility.yul\":7575:7844   */\n    tag_102:\n        /* \"#utility.yul\":7685:7724   */\n      tag_198\n        /* \"#utility.yul\":7716:7723   */\n      dup4\n        /* \"#utility.yul\":7685:7724   */\n      tag_100\n      jump\t// in\n    tag_198:\n        /* \"#utility.yul\":7746:7837   */\n      tag_199\n        /* \"#utility.yul\":7795:7836   */\n      tag_200\n        /* \"#utility.yul\":7819:7835   */\n      dup3\n        /* \"#utility.yul\":7795:7836   */\n      tag_101\n      jump\t// in\n    tag_200:\n        /* \"#utility.yul\":7787:7793   */\n      dup5\n        /* \"#utility.yul\":7780:7784   */\n      dup5\n        /* \"#utility.yul\":7774:7785   */\n      sload\n        /* \"#utility.yul\":7746:7837   */\n      tag_98\n      jump\t// in\n    tag_199:\n        /* \"#utility.yul\":7740:7744   */\n      dup3\n        /* \"#utility.yul\":7733:7838   */\n      sstore\n        /* \"#utility.yul\":7651:7844   */\n      pop\n        /* \"#utility.yul\":7575:7844   */\n      pop\n      pop\n      pop\n      jump\t// out\n        /* \"#utility.yul\":7850:7923   */\n    tag_103:\n        /* \"#utility.yul\":7895:7898   */\n      0x00\n        /* \"#utility.yul\":7850:7923   */\n      swap1\n      jump\t// out\n        /* \"#utility.yul\":7929:8118   */\n    tag_104:\n        /* \"#utility.yul\":8006:8038   */\n      tag_203\n      tag_103\n      jump\t// in\n    tag_203:\n        /* \"#utility.yul\":8047:8112   */\n      tag_204\n        /* \"#utility.yul\":8105:8111   */\n      dup2\n        /* \"#utility.yul\":8097:8103   */\n      dup5\n        /* \"#utility.yul\":8091:8095   */\n      dup5\n        /* \"#utility.yul\":8047:8112   */\n      tag_102\n      jump\t// in\n    tag_204:\n        /* \"#utility.yul\":7982:8118   */\n      pop\n        /* \"#utility.yul\":7929:8118   */\n      pop\n      pop\n      jump\t// out\n        /* \"#utility.yul\":8124:8310   */\n    tag_105:\n        /* \"#utility.yul\":8184:8304   */\n    tag_206:\n        /* \"#utility.yul\":8201:8204   */\n      dup2\n        /* \"#utility.yul\":8194:8199   */\n      dup2\n        /* \"#utility.yul\":8191:8205   */\n      lt\n        /* \"#utility.yul\":8184:8304   */\n      iszero\n      tag_208\n      jumpi\n        /* \"#utility.yul\":8255:8294   */\n      tag_209\n        /* \"#utility.yul\":8292:8293   */\n      0x00\n        /* \"#utility.yul\":8285:8290   */\n      dup3\n        /* \"#utility.yul\":8255:8294   */\n      tag_104\n      jump\t// in\n    tag_209:\n        /* \"#utility.yul\":8228:8229   */\n      0x01\n        /* \"#utility.yul\":8221:8226   */\n      dup2\n        /* \"#utility.yul\":8217:8230   */\n      add\n        /* \"#utility.yul\":8208:8230   */\n      swap1\n      pop\n        /* \"#utility.yul\":8184:8304   */\n      jump(tag_206)\n    tag_208:\n        /* \"#utility.yul\":8124:8310   */\n      pop\n      pop\n      jump\t// out\n        /* \"#utility.yul\":8316:8859   */\n    tag_106:\n        /* \"#utility.yul\":8417:8419   */\n      0x1f\n        /* \"#utility.yul\":8412:8415   */\n      dup3\n        /* \"#utility.yul\":8409:8420   */\n      gt\n        /* \"#utility.yul\":8406:8852   */\n      iszero\n      tag_211\n      jumpi\n        /* \"#utility.yul\":8451:8489   */\n      tag_212\n        /* \"#utility.yul\":8483:8488   */\n      dup2\n        /* \"#utility.yul\":8451:8489   */\n      tag_95\n      jump\t// in\n    tag_212:\n        /* \"#utility.yul\":8535:8564   */\n      tag_213\n        /* \"#utility.yul\":8553:8563   */\n      dup5\n        /* \"#utility.yul\":8535:8564   */\n      tag_96\n      jump\t// in\n    tag_213:\n        /* \"#utility.yul\":8525:8533   */\n      dup2\n        /* \"#utility.yul\":8521:8565   */\n      add\n        /* \"#utility.yul\":8718:8720   */\n      0x20\n        /* \"#utility.yul\":8706:8716   */\n      dup6\n        /* \"#utility.yul\":8703:8721   */\n      lt\n        /* \"#utility.yul\":8700:8749   */\n      iszero\n      tag_214\n      jumpi\n        /* \"#utility.yul\":8739:8747   */\n      dup2\n        /* \"#utility.yul\":8724:8747   */\n      swap1\n      pop\n        /* \"#utility.yul\":8700:8749   */\n    tag_214:\n        /* \"#utility.yul\":8762:8842   */\n      tag_215\n        /* \"#utility.yul\":8818:8840   */\n      tag_216\n        /* \"#utility.yul\":8836:8839   */\n      dup6\n        /* \"#utility.yul\":8818:8840   */\n      tag_96\n      jump\t// in\n    tag_216:\n        /* \"#utility.yul\":8808:8816   */\n      dup4\n        /* \"#utility.yul\":8804:8841   */\n      add\n        /* \"#utility.yul\":8791:8802   */\n      dup3\n        /* \"#utility.yul\":8762:8842   */\n      tag_105\n      jump\t// in\n    tag_215:\n        /* \"#utility.yul\":8421:8852   */\n      pop\n      pop\n        /* \"#utility.yul\":8406:8852   */\n    tag_211:\n        /* \"#utility.yul\":8316:8859   */\n      pop\n      pop\n      pop\n      jump\t// out\n        /* \"#utility.yul\":8865:8982   */\n    tag_107:\n        /* \"#utility.yul\":8919:8927   */\n      0x00\n        /* \"#utility.yul\":8969:8974   */\n      dup3\n        /* \"#utility.yul\":8963:8967   */\n      dup3\n        /* \"#utility.yul\":8959:8975   */\n      shr\n        /* \"#utility.yul\":8938:8975   */\n      swap1\n      pop\n        /* \"#utility.yul\":8865:8982   */\n      swap3\n      swap2\n      pop\n      pop\n      jump\t// out\n        /* \"#utility.yul\":8988:9157   */\n    tag_108:\n        /* \"#utility.yul\":9032:9038   */\n      0x00\n        /* \"#utility.yul\":9065:9116   */\n      tag_219\n        /* \"#utility.yul\":9113:9114   */\n      0x00\n        /* \"#utility.yul\":9109:9115   */\n      not\n        /* \"#utility.yul\":9101:9106   */\n      dup5\n        /* \"#utility.yul\":9098:9099   */\n      0x08\n        /* \"#utility.yul\":9094:9107   */\n      mul\n        /* \"#utility.yul\":9065:9116   */\n      tag_107\n      jump\t// in\n    tag_219:\n        /* \"#utility.yul\":9061:9117   */\n      not\n        /* \"#utility.yul\":9146:9150   */\n      dup1\n        /* \"#utility.yul\":9140:9144   */\n      dup4\n        /* \"#utility.yul\":9136:9151   */\n      and\n        /* \"#utility.yul\":9126:9151   */\n      swap2\n      pop\n        /* \"#utility.yul\":9039:9157   */\n      pop\n        /* \"#utility.yul\":8988:9157   */\n      swap3\n      swap2\n      pop\n      pop\n      jump\t// out\n        /* \"#utility.yul\":9162:9457   */\n    tag_109:\n        /* \"#utility.yul\":9238:9242   */\n      0x00\n        /* \"#utility.yul\":9384:9413   */\n      tag_221\n        /* \"#utility.yul\":9409:9412   */\n      dup4\n        /* \"#utility.yul\":9403:9407   */\n      dup4\n        /* \"#utility.yul\":9384:9413   */\n      tag_108\n      jump\t// in\n    tag_221:\n        /* \"#utility.yul\":9376:9413   */\n      swap2\n      pop\n        /* \"#utility.yul\":9446:9449   */\n      dup3\n        /* \"#utility.yul\":9443:9444   */\n      0x02\n        /* \"#utility.yul\":9439:9450   */\n      mul\n        /* \"#utility.yul\":9433:9437   */\n      dup3\n        /* \"#utility.yul\":9430:9451   */\n      or\n        /* \"#utility.yul\":9422:9451   */\n      swap1\n      pop\n        /* \"#utility.yul\":9162:9457   */\n      swap3\n      swap2\n      pop\n      pop\n      jump\t// out\n        /* \"#utility.yul\":9462:10857   */\n    tag_54:\n        /* \"#utility.yul\":9579:9616   */\n      tag_223\n        /* \"#utility.yul\":9612:9615   */\n      dup3\n        /* \"#utility.yul\":9579:9616   */\n      tag_90\n      jump\t// in\n    tag_223:\n        /* \"#utility.yul\":9681:9699   */\n      0xffffffffffffffff\n        /* \"#utility.yul\":9673:9679   */\n      dup2\n        /* \"#utility.yul\":9670:9700   */\n      gt\n        /* \"#utility.yul\":9667:9723   */\n      iszero\n      tag_224\n      jumpi\n        /* \"#utility.yul\":9703:9721   */\n      tag_225\n      tag_83\n      jump\t// in\n    tag_225:\n        /* \"#utility.yul\":9667:9723   */\n    tag_224:\n        /* \"#utility.yul\":9747:9785   */\n      tag_226\n        /* \"#utility.yul\":9779:9783   */\n      dup3\n        /* \"#utility.yul\":9773:9784   */\n      sload\n        /* \"#utility.yul\":9747:9785   */\n      tag_59\n      jump\t// in\n    tag_226:\n        /* \"#utility.yul\":9832:9899   */\n      tag_227\n        /* \"#utility.yul\":9892:9898   */\n      dup3\n        /* \"#utility.yul\":9884:9890   */\n      dup3\n        /* \"#utility.yul\":9878:9882   */\n      dup6\n        /* \"#utility.yul\":9832:9899   */\n      tag_106\n      jump\t// in\n    tag_227:\n        /* \"#utility.yul\":9926:9927   */\n      0x00\n        /* \"#utility.yul\":9950:9954   */\n      0x20\n        /* \"#utility.yul\":9937:9954   */\n      swap1\n      pop\n        /* \"#utility.yul\":9982:9984   */\n      0x1f\n        /* \"#utility.yul\":9974:9980   */\n      dup4\n        /* \"#utility.yul\":9971:9985   */\n      gt\n        /* \"#utility.yul\":9999:10000   */\n      0x01\n        /* \"#utility.yul\":9994:10612   */\n      dup2\n      eq\n      tag_229\n      jumpi\n        /* \"#utility.yul\":10656:10657   */\n      0x00\n        /* \"#utility.yul\":10673:10679   */\n      dup5\n        /* \"#utility.yul\":10670:10747   */\n      iszero\n      tag_230\n      jumpi\n        /* \"#utility.yul\":10722:10731   */\n      dup3\n        /* \"#utility.yul\":10717:10720   */\n      dup8\n        /* \"#utility.yul\":10713:10732   */\n      add\n        /* \"#utility.yul\":10707:10733   */\n      mload\n        /* \"#utility.yul\":10698:10733   */\n      swap1\n      pop\n        /* \"#utility.yul\":10670:10747   */\n    tag_230:\n        /* \"#utility.yul\":10773:10840   */\n      tag_231\n        /* \"#utility.yul\":10833:10839   */\n      dup6\n        /* \"#utility.yul\":10826:10831   */\n      dup3\n        /* \"#utility.yul\":10773:10840   */\n      tag_109\n      jump\t// in\n    tag_231:\n        /* \"#utility.yul\":10767:10771   */\n      dup7\n        /* \"#utility.yul\":10760:10841   */\n      sstore\n        /* \"#utility.yul\":10629:10851   */\n      pop\n        /* \"#utility.yul\":9964:10851   */\n      jump(tag_228)\n        /* \"#utility.yul\":9994:10612   */\n    tag_229:\n        /* \"#utility.yul\":10046:10050   */\n      0x1f\n        /* \"#utility.yul\":10042:10051   */\n      not\n        /* \"#utility.yul\":10034:10040   */\n      dup5\n        /* \"#utility.yul\":10030:10052   */\n      and\n        /* \"#utility.yul\":10080:10117   */\n      tag_232\n        /* \"#utility.yul\":10112:10116   */\n      dup7\n        /* \"#utility.yul\":10080:10117   */\n      tag_95\n      jump\t// in\n    tag_232:\n        /* \"#utility.yul\":10139:10140   */\n      0x00\n        /* \"#utility.yul\":10153:10361   */\n    tag_233:\n        /* \"#utility.yul\":10167:10174   */\n      dup3\n        /* \"#utility.yul\":10164:10165   */\n      dup2\n        /* \"#utility.yul\":10161:10175   */\n      lt\n        /* \"#utility.yul\":10153:10361   */\n      iszero\n      tag_235\n      jumpi\n        /* \"#utility.yul\":10246:10255   */\n      dup5\n        /* \"#utility.yul\":10241:10244   */\n      dup10\n        /* \"#utility.yul\":10237:10256   */\n      add\n        /* \"#utility.yul\":10231:10257   */\n      mload\n        /* \"#utility.yul\":10223:10229   */\n      dup3\n        /* \"#utility.yul\":10216:10258   */\n      sstore\n        /* \"#utility.yul\":10297:10298   */\n      0x01\n        /* \"#utility.yul\":10289:10295   */\n      dup3\n        /* \"#utility.yul\":10285:10299   */\n      add\n        /* \"#utility.yul\":10275:10299   */\n      swap2\n      pop\n        /* \"#utility.yul\":10344:10346   */\n      0x20\n        /* \"#utility.yul\":10333:10342   */\n      dup6\n        /* \"#utility.yul\":10329:10347   */\n      add\n        /* \"#utility.yul\":10316:10347   */\n      swap5\n      pop\n        /* \"#utility.yul\":10190:10194   */\n      0x20\n        /* \"#utility.yul\":10187:10188   */\n      dup2\n        /* \"#utility.yul\":10183:10195   */\n      add\n        /* \"#utility.yul\":10178:10195   */\n      swap1\n      pop\n        /* \"#utility.yul\":10153:10361   */\n      jump(tag_233)\n    tag_235:\n        /* \"#utility.yul\":10389:10395   */\n      dup7\n        /* \"#utility.yul\":10380:10387   */\n      dup4\n        /* \"#utility.yul\":10377:10396   */\n      lt\n        /* \"#utility.yul\":10374:10553   */\n      iszero\n      tag_236\n      jumpi\n        /* \"#utility.yul\":10447:10456   */\n      dup5\n        /* \"#utility.yul\":10442:10445   */\n      dup10\n        /* \"#utility.yul\":10438:10457   */\n      add\n        /* \"#utility.yul\":10432:10458   */\n      mload\n        /* \"#utility.yul\":10490:10538   */\n      tag_237\n        /* \"#utility.yul\":10532:10536   */\n      0x1f\n        /* \"#utility.yul\":10524:10530   */\n      dup10\n        /* \"#utility.yul\":10520:10537   */\n      and\n        /* \"#utility.yul\":10509:10518   */\n      dup3\n        /* \"#utility.yul\":10490:10538   */\n      tag_108\n      jump\t// in\n    tag_237:\n        /* \"#utility.yul\":10482:10488   */\n      dup4\n        /* \"#utility.yul\":10475:10539   */\n      sstore\n        /* \"#utility.yul\":10397:10553   */\n      pop\n        /* \"#utility.yul\":10374:10553   */\n    tag_236:\n        /* \"#utility.yul\":10599:10600   */\n      0x01\n        /* \"#utility.yul\":10595:10596   */\n      0x02\n        /* \"#utility.yul\":10587:10593   */\n      dup9\n        /* \"#utility.yul\":10583:10597   */\n      mul\n        /* \"#utility.yul\":10579:10601   */\n      add\n        /* \"#utility.yul\":10573:10577   */\n      dup9\n        /* \"#utility.yul\":10566:10602   */\n      sstore\n        /* \"#utility.yul\":10001:10612   */\n      pop\n      pop\n      pop\n        /* \"#utility.yul\":9964:10851   */\n    tag_228:\n      pop\n        /* \"#utility.yul\":9554:10857   */\n      pop\n      pop\n      pop\n        /* \"#utility.yul\":9462:10857   */\n      pop\n      pop\n      jump\t// out\n        /* \"#utility.yul\":10863:11011   */\n    tag_110:\n        /* \"#utility.yul\":10965:10976   */\n      0x00\n        /* \"#utility.yul\":11002:11005   */\n      dup2\n        /* \"#utility.yul\":10987:11005   */\n      swap1\n      pop\n        /* \"#utility.yul\":10863:11011   */\n      swap3\n      swap2\n      pop\n      pop\n      jump\t// out\n        /* \"#utility.yul\":11017:11407   */\n    tag_111:\n        /* \"#utility.yul\":11123:11126   */\n      0x00\n        /* \"#utility.yul\":11151:11190   */\n      tag_240\n        /* \"#utility.yul\":11184:11189   */\n      dup3\n        /* \"#utility.yul\":11151:11190   */\n      tag_90\n      jump\t// in\n    tag_240:\n        /* \"#utility.yul\":11206:11295   */\n      tag_241\n        /* \"#utility.yul\":11288:11294   */\n      dup2\n        /* \"#utility.yul\":11283:11286   */\n      dup6\n        /* \"#utility.yul\":11206:11295   */\n      tag_110\n      jump\t// in\n    tag_241:\n        /* \"#utility.yul\":11199:11295   */\n      swap4\n      pop\n        /* \"#utility.yul\":11304:11369   */\n      tag_242\n        /* \"#utility.yul\":11362:11368   */\n      dup2\n        /* \"#utility.yul\":11357:11360   */\n      dup6\n        /* \"#utility.yul\":11350:11354   */\n      0x20\n        /* \"#utility.yul\":11343:11348   */\n      dup7\n        /* \"#utility.yul\":11339:11355   */\n      add\n        /* \"#utility.yul\":11304:11369   */\n      tag_92\n      jump\t// in\n    tag_242:\n        /* \"#utility.yul\":11394:11400   */\n      dup1\n        /* \"#utility.yul\":11389:11392   */\n      dup5\n        /* \"#utility.yul\":11385:11401   */\n      add\n        /* \"#utility.yul\":11378:11401   */\n      swap2\n      pop\n        /* \"#utility.yul\":11127:11407   */\n      pop\n        /* \"#utility.yul\":11017:11407   */\n      swap3\n      swap2\n      pop\n      pop\n      jump\t// out\n        /* \"#utility.yul\":11413:11688   */\n    tag_57:\n        /* \"#utility.yul\":11545:11548   */\n      0x00\n        /* \"#utility.yul\":11567:11662   */\n      tag_244\n        /* \"#utility.yul\":11658:11661   */\n      dup3\n        /* \"#utility.yul\":11649:11655   */\n      dup5\n        /* \"#utility.yul\":11567:11662   */\n      tag_111\n      jump\t// in\n    tag_244:\n        /* \"#utility.yul\":11560:11662   */\n      swap2\n      pop\n        /* \"#utility.yul\":11679:11682   */\n      dup2\n        /* \"#utility.yul\":11672:11682   */\n      swap1\n      pop\n        /* \"#utility.yul\":11413:11688   */\n      swap3\n      swap2\n      pop\n      pop\n      jump\t// out\n\n    auxdata: 0xa2646970667358221220b5c5959ac610032333fcc3dacb81a630e28b5d4f3055130e554961939ebdb05464736f6c634300081a0033\n}\n",
				"bytecode": {
					"linkReferences": {},
					"object": "6080604052607b5f556040518060400160405280607b81526020016040518060400160405280600481526020017f4a6f686e0000000000000000000000000000000000000000000000000000000081525081525060015f820151815f0155602082015181600101908161007291906102c0565b505050348015610080575f80fd5b5061038f565b5f81519050919050565b7f4e487b71000000000000000000000000000000000000000000000000000000005f52604160045260245ffd5b7f4e487b71000000000000000000000000000000000000000000000000000000005f52602260045260245ffd5b5f600282049050600182168061010157607f821691505b602082108103610114576101136100bd565b5b50919050565b5f819050815f5260205f209050919050565b5f6020601f8301049050919050565b5f82821b905092915050565b5f600883026101767fffffffffffffffffffffffffffffffffffffffffffffffffffffffffffffffff8261013b565b610180868361013b565b95508019841693508086168417925050509392505050565b5f819050919050565b5f819050919050565b5f6101c46101bf6101ba84610198565b6101a1565b610198565b9050919050565b5f819050919050565b6101dd836101aa565b6101f16101e9826101cb565b848454610147565b825550505050565b5f90565b6102056101f9565b6102108184846101d4565b505050565b5b81811015610233576102285f826101fd565b600181019050610216565b5050565b601f821115610278576102498161011a565b6102528461012c565b81016020851015610261578190505b61027561026d8561012c565b830182610215565b50505b505050565b5f82821c905092915050565b5f6102985f198460080261027d565b1980831691505092915050565b5f6102b08383610289565b9150826002028217905092915050565b6102c982610086565b67ffffffffffffffff8111156102e2576102e1610090565b5b6102ec82546100ea565b6102f7828285610237565b5f60209050601f831160018114610328575f8415610316578287015190505b61032085826102a5565b865550610387565b601f1984166103368661011a565b5f5b8281101561035d57848901518255600182019150602085019450602081019050610338565b8683101561037a5784890151610376601f891682610289565b8355505b6001600288020188555050505b505050505050565b610a898061039c5f395ff3fe608060405234801561000f575f80fd5b5060043610610091575f3560e01c80636f760f41116100645780636f760f411461010b57806377ec2b55146101275780638bab8dd5146101465780639e7a13ad14610176578063cb321447146101a757610091565b80632e64cec114610095578063471f7cdf146100b35780634f2be91f146100d15780636057361d146100ef575b5f80fd5b61009d6101d7565b6040516100aa9190610450565b60405180910390f35b6100bb6101df565b6040516100c89190610450565b60405180910390f35b6100d96101e4565b6040516100e69190610450565b60405180910390f35b610109600480360381019061010491906104a4565b6101ec565b005b6101256004803603810190610120919061060b565b6101f5565b005b61012f61029f565b60405161013d9291906106c5565b60405180910390f35b610160600480360381019061015b91906106f3565b610336565b60405161016d9190610450565b60405180910390f35b610190600480360381019061018b91906104a4565b610363565b60405161019e9291906106c5565b60405180910390f35b6101c160048036038101906101bc91906104a4565b610418565b6040516101ce9190610450565b60405180910390f35b5f8054905090565b5f5481565b5f6002905090565b805f8190555050565b6005604051806040016040528083815260200184815250908060018154018082558091505060019003905f5260205f2090600202015f909190919091505f820151815f0155602082015181600101908161024f9190610934565b505050600481908060018154018082558091505060019003905f5260205f20015f9091909190915055806003836040516102899190610a3d565b9081526020016040518091039020819055505050565b6001805f0154908060010180546102b590610767565b80601f01602080910402602001604051908101604052809291908181526020018280546102e190610767565b801561032c5780601f106103035761010080835404028352916020019161032c565b820191905f5260205f20905b81548152906001019060200180831161030f57829003601f168201915b5050505050905082565b6003818051602081018201805184825260208301602085012081835280955050505050505f915090505481565b60058181548110610372575f80fd5b905f5260205f2090600202015f91509050805f01549080600101805461039790610767565b80601f01602080910402602001604051908101604052809291908181526020018280546103c390610767565b801561040e5780601f106103e55761010080835404028352916020019161040e565b820191905f5260205f20905b8154815290600101906020018083116103f157829003601f168201915b5050505050905082565b60048181548110610427575f80fd5b905f5260205f20015f915090505481565b5f819050919050565b61044a81610438565b82525050565b5f6020820190506104635f830184610441565b92915050565b5f604051905090565b5f80fd5b5f80fd5b61048381610438565b811461048d575f80fd5b50565b5f8135905061049e8161047a565b92915050565b5f602082840312156104b9576104b8610472565b5b5f6104c684828501610490565b91505092915050565b5f80fd5b5f80fd5b5f601f19601f8301169050919050565b7f4e487b71000000000000000000000000000000000000000000000000000000005f52604160045260245ffd5b61051d826104d7565b810181811067ffffffffffffffff8211171561053c5761053b6104e7565b5b80604052505050565b5f61054e610469565b905061055a8282610514565b919050565b5f67ffffffffffffffff821115610579576105786104e7565b5b610582826104d7565b9050602081019050919050565b828183375f83830152505050565b5f6105af6105aa8461055f565b610545565b9050828152602081018484840111156105cb576105ca6104d3565b5b6105d684828561058f565b509392505050565b5f82601f8301126105f2576105f16104cf565b5b813561060284826020860161059d565b91505092915050565b5f806040838503121561062157610620610472565b5b5f83013567ffffffffffffffff81111561063e5761063d610476565b5b61064a858286016105de565b925050602061065b85828601610490565b9150509250929050565b5f81519050919050565b5f82825260208201905092915050565b8281835e5f83830152505050565b5f61069782610665565b6106a1818561066f565b93506106b181856020860161067f565b6106ba816104d7565b840191505092915050565b5f6040820190506106d85f830185610441565b81810360208301526106ea818461068d565b90509392505050565b5f6020828403121561070857610707610472565b5b5f82013567ffffffffffffffff81111561072557610724610476565b5b610731848285016105de565b91505092915050565b7f4e487b71000000000000000000000000000000000000000000000000000000005f52602260045260245ffd5b5f600282049050600182168061077e57607f821691505b6020821081036107915761079061073a565b5b50919050565b5f819050815f5260205f209050919050565b5f6020601f8301049050919050565b5f82821b905092915050565b5f600883026107f37fffffffffffffffffffffffffffffffffffffffffffffffffffffffffffffffff826107b8565b6107fd86836107b8565b95508019841693508086168417925050509392505050565b5f819050919050565b5f61083861083361082e84610438565b610815565b610438565b9050919050565b5f819050919050565b6108518361081e565b61086561085d8261083f565b8484546107c4565b825550505050565b5f90565b61087961086d565b610884818484610848565b505050565b5b818110156108a75761089c5f82610871565b60018101905061088a565b5050565b601f8211156108ec576108bd81610797565b6108c6846107a9565b810160208510156108d5578190505b6108e96108e1856107a9565b830182610889565b50505b505050565b5f82821c905092915050565b5f61090c5f19846008026108f1565b1980831691505092915050565b5f61092483836108fd565b9150826002028217905092915050565b61093d82610665565b67ffffffffffffffff811115610956576109556104e7565b5b6109608254610767565b61096b8282856108ab565b5f60209050601f83116001811461099c575f841561098a578287015190505b6109948582610919565b8655506109fb565b601f1984166109aa86610797565b5f5b828110156109d1578489015182556001820191506020850194506020810190506109ac565b868310156109ee57848901516109ea601f8916826108fd565b8355505b6001600288020188555050505b505050505050565b5f81905092915050565b5f610a1782610665565b610a218185610a03565b9350610a3181856020860161067f565b80840191505092915050565b5f610a488284610a0d565b91508190509291505056fea2646970667358221220b5c5959ac610032333fcc3dacb81a630e28b5d4f3055130e554961939ebdb05464736f6c634300081a0033",
					"opcodes": "PUSH1 0x80 PUSH1 0x40 MSTORE PUSH1 0x7B PUSH0 SSTORE PUSH1 0x40 MLOAD DUP1 PUSH1 0x40 ADD PUSH1 0x40 MSTORE DUP1 PUSH1 0x7B DUP2 MSTORE PUSH1 0x20 ADD PUSH1 0x40 MLOAD DUP1 PUSH1 0x40 ADD PUSH1 0x40 MSTORE DUP1 PUSH1 0x4 DUP2 MSTORE PUSH1 0x20 ADD PUSH32 0x4A6F686E00000000000000000000000000000000000000000000000000000000 DUP2 MSTORE POP DUP2 MSTORE POP PUSH1 0x1 PUSH0 DUP3 ADD MLOAD DUP2 PUSH0 ADD SSTORE PUSH1 0x20 DUP3 ADD MLOAD DUP2 PUSH1 0x1 ADD SWAP1 DUP2 PUSH2 0x72 SWAP2 SWAP1 PUSH2 0x2C0 JUMP JUMPDEST POP POP POP CALLVALUE DUP1 ISZERO PUSH2 0x80 JUMPI PUSH0 DUP1 REVERT JUMPDEST POP PUSH2 0x38F JUMP JUMPDEST PUSH0 DUP2 MLOAD SWAP1 POP SWAP2 SWAP1 POP JUMP JUMPDEST PUSH32 0x4E487B7100000000000000000000000000000000000000000000000000000000 PUSH0 MSTORE PUSH1 0x41 PUSH1 0x4 MSTORE PUSH1 0x24 PUSH0 REVERT JUMPDEST PUSH32 0x4E487B7100000000000000000000000000000000000000000000000000000000 PUSH0 MSTORE PUSH1 0x22 PUSH1 0x4 MSTORE PUSH1 0x24 PUSH0 REVERT JUMPDEST PUSH0 PUSH1 0x2 DUP3 DIV SWAP1 POP PUSH1 0x1 DUP3 AND DUP1 PUSH2 0x101 JUMPI PUSH1 0x7F DUP3 AND SWAP2 POP JUMPDEST PUSH1 0x20 DUP3 LT DUP2 SUB PUSH2 0x114 JUMPI PUSH2 0x113 PUSH2 0xBD JUMP JUMPDEST JUMPDEST POP SWAP2 SWAP1 POP JUMP JUMPDEST PUSH0 DUP2 SWAP1 POP DUP2 PUSH0 MSTORE PUSH1 0x20 PUSH0 KECCAK256 SWAP1 POP SWAP2 SWAP1 POP JUMP JUMPDEST PUSH0 PUSH1 0x20 PUSH1 0x1F DUP4 ADD DIV SWAP1 POP SWAP2 SWAP1 POP JUMP JUMPDEST PUSH0 DUP3 DUP3 SHL SWAP1 POP SWAP3 SWAP2 POP POP JUMP JUMPDEST PUSH0 PUSH1 0x8 DUP4 MUL PUSH2 0x176 PUSH32 0xFFFFFFFFFFFFFFFFFFFFFFFFFFFFFFFFFFFFFFFFFFFFFFFFFFFFFFFFFFFFFFFF DUP3 PUSH2 0x13B JUMP JUMPDEST PUSH2 0x180 DUP7 DUP4 PUSH2 0x13B JUMP JUMPDEST SWAP6 POP DUP1 NOT DUP5 AND SWAP4 POP DUP1 DUP7 AND DUP5 OR SWAP3 POP POP POP SWAP4 SWAP3 POP POP POP JUMP JUMPDEST PUSH0 DUP2 SWAP1 POP SWAP2 SWAP1 POP JUMP JUMPDEST PUSH0 DUP2 SWAP1 POP SWAP2 SWAP1 POP JUMP JUMPDEST PUSH0 PUSH2 0x1C4 PUSH2 0x1BF PUSH2 0x1BA DUP5 PUSH2 0x198 JUMP JUMPDEST PUSH2 0x1A1 JUMP JUMPDEST PUSH2 0x198 JUMP JUMPDEST SWAP1 POP SWAP2 SWAP1 POP JUMP JUMPDEST PUSH0 DUP2 SWAP1 POP SWAP2 SWAP1 POP JUMP JUMPDEST PUSH2 0x1DD DUP4 PUSH2 0x1AA JUMP JUMPDEST PUSH2 0x1F1 PUSH2 0x1E9 DUP3 PUSH2 0x1CB JUMP JUMPDEST DUP5 DUP5 SLOAD PUSH2 0x147 JUMP JUMPDEST DUP3 SSTORE POP POP POP POP JUMP JUMPDEST PUSH0 SWAP1 JUMP JUMPDEST PUSH2 0x205 PUSH2 0x1F9 JUMP JUMPDEST PUSH2 0x210 DUP2 DUP5 DUP5 PUSH2 0x1D4 JUMP JUMPDEST POP POP POP JUMP JUMPDEST JUMPDEST DUP2 DUP2 LT ISZERO PUSH2 0x233 JUMPI PUSH2 0x228 PUSH0 DUP3 PUSH2 0x1FD JUMP JUMPDEST PUSH1 0x1 DUP2 ADD SWAP1 POP PUSH2 0x216 JUMP JUMPDEST POP POP JUMP JUMPDEST PUSH1 0x1F DUP3 GT ISZERO PUSH2 0x278 JUMPI PUSH2 0x249 DUP2 PUSH2 0x11A JUMP JUMPDEST PUSH2 0x252 DUP5 PUSH2 0x12C JUMP JUMPDEST DUP2 ADD PUSH1 0x20 DUP6 LT ISZERO PUSH2 0x261 JUMPI DUP2 SWAP1 POP JUMPDEST PUSH2 0x275 PUSH2 0x26D DUP6 PUSH2 0x12C JUMP JUMPDEST DUP4 ADD DUP3 PUSH2 0x215 JUMP JUMPDEST POP POP JUMPDEST POP POP POP JUMP JUMPDEST PUSH0 DUP3 DUP3 SHR SWAP1 POP SWAP3 SWAP2 POP POP JUMP JUMPDEST PUSH0 PUSH2 0x298 PUSH0 NOT DUP5 PUSH1 0x8 MUL PUSH2 0x27D JUMP JUMPDEST NOT DUP1 DUP4 AND SWAP2 POP POP SWAP3 SWAP2 POP POP JUMP JUMPDEST PUSH0 PUSH2 0x2B0 DUP4 DUP4 PUSH2 0x289 JUMP JUMPDEST SWAP2 POP DUP3 PUSH1 0x2 MUL DUP3 OR SWAP1 POP SWAP3 SWAP2 POP POP JUMP JUMPDEST PUSH2 0x2C9 DUP3 PUSH2 0x86 JUMP JUMPDEST PUSH8 0xFFFFFFFFFFFFFFFF DUP2 GT ISZERO PUSH2 0x2E2 JUMPI PUSH2 0x2E1 PUSH2 0x90 JUMP JUMPDEST JUMPDEST PUSH2 0x2EC DUP3 SLOAD PUSH2 0xEA JUMP JUMPDEST PUSH2 0x2F7 DUP3 DUP3 DUP6 PUSH2 0x237 JUMP JUMPDEST PUSH0 PUSH1 0x20 SWAP1 POP PUSH1 0x1F DUP4 GT PUSH1 0x1 DUP2 EQ PUSH2 0x328 JUMPI PUSH0 DUP5 ISZERO PUSH2 0x316 JUMPI DUP3 DUP8 ADD MLOAD SWAP1 POP JUMPDEST PUSH2 0x320 DUP6 DUP3 PUSH2 0x2A5 JUMP JUMPDEST DUP7 SSTORE POP PUSH2 0x387 JUMP JUMPDEST PUSH1 0x1F NOT DUP5 AND PUSH2 0x336 DUP7 PUSH2 0x11A JUMP JUMPDEST PUSH0 JUMPDEST DUP3 DUP2 LT ISZERO PUSH2 0x35D JUMPI DUP5 DUP10 ADD MLOAD DUP3 SSTORE PUSH1 0x1 DUP3 ADD SWAP2 POP PUSH1 0x20 DUP6 ADD SWAP5 POP PUSH1 0x20 DUP2 ADD SWAP1 POP PUSH2 0x338 JUMP JUMPDEST DUP7 DUP4 LT ISZERO PUSH2 0x37A JUMPI DUP5 DUP10 ADD MLOAD PUSH2 0x376 PUSH1 0x1F DUP10 AND DUP3 PUSH2 0x289 JUMP JUMPDEST DUP4 SSTORE POP JUMPDEST PUSH1 0x1 PUSH1 0x2 DUP9 MUL ADD DUP9 SSTORE POP POP POP JUMPDEST POP POP POP POP POP POP JUMP JUMPDEST PUSH2 0xA89 DUP1 PUSH2 0x39C PUSH0 CODECOPY PUSH0 RETURN INVALID PUSH1 0x80 PUSH1 0x40 MSTORE CALLVALUE DUP1 ISZERO PUSH2 0xF JUMPI PUSH0 DUP1 REVERT JUMPDEST POP PUSH1 0x4 CALLDATASIZE LT PUSH2 0x91 JUMPI PUSH0 CALLDATALOAD PUSH1 0xE0 SHR DUP1 PUSH4 0x6F760F41 GT PUSH2 0x64 JUMPI DUP1 PUSH4 0x6F760F41 EQ PUSH2 0x10B JUMPI DUP1 PUSH4 0x77EC2B55 EQ PUSH2 0x127 JUMPI DUP1 PUSH4 0x8BAB8DD5 EQ PUSH2 0x146 JUMPI DUP1 PUSH4 0x9E7A13AD EQ PUSH2 0x176 JUMPI DUP1 PUSH4 0xCB321447 EQ PUSH2 0x1A7 JUMPI PUSH2 0x91 JUMP JUMPDEST DUP1 PUSH4 0x2E64CEC1 EQ PUSH2 0x95 JUMPI DUP1 PUSH4 0x471F7CDF EQ PUSH2 0xB3 JUMPI DUP1 PUSH4 0x4F2BE91F EQ PUSH2 0xD1 JUMPI DUP1 PUSH4 0x6057361D EQ PUSH2 0xEF JUMPI JUMPDEST PUSH0 DUP1 REVERT JUMPDEST PUSH2 0x9D PUSH2 0x1D7 JUMP JUMPDEST PUSH1 0x40 MLOAD PUSH2 0xAA SWAP2 SWAP1 PUSH2 0x450 JUMP JUMPDEST PUSH1 0x40 MLOAD DUP1 SWAP2 SUB SWAP1 RETURN JUMPDEST PUSH2 0xBB PUSH2 0x1DF JUMP JUMPDEST PUSH1 0x40 MLOAD PUSH2 0xC8 SWAP2 SWAP1 PUSH2 0x450 JUMP JUMPDEST PUSH1 0x40 MLOAD DUP1 SWAP2 SUB SWAP1 RETURN JUMPDEST PUSH2 0xD9 PUSH2 0x1E4 JUMP JUMPDEST PUSH1 0x40 MLOAD PUSH2 0xE6 SWAP2 SWAP1 PUSH2 0x450 JUMP JUMPDEST PUSH1 0x40 MLOAD DUP1 SWAP2 SUB SWAP1 RETURN JUMPDEST PUSH2 0x109 PUSH1 0x4 DUP1 CALLDATASIZE SUB DUP2 ADD SWAP1 PUSH2 0x104 SWAP2 SWAP1 PUSH2 0x4A4 JUMP JUMPDEST PUSH2 0x1EC JUMP JUMPDEST STOP JUMPDEST PUSH2 0x125 PUSH1 0x4 DUP1 CALLDATASIZE SUB DUP2 ADD SWAP1 PUSH2 0x120 SWAP2 SWAP1 PUSH2 0x60B JUMP JUMPDEST PUSH2 0x1F5 JUMP JUMPDEST STOP JUMPDEST PUSH2 0x12F PUSH2 0x29F JUMP JUMPDEST PUSH1 0x40 MLOAD PUSH2 0x13D SWAP3 SWAP2 SWAP1 PUSH2 0x6C5 JUMP JUMPDEST PUSH1 0x40 MLOAD DUP1 SWAP2 SUB SWAP1 RETURN JUMPDEST PUSH2 0x160 PUSH1 0x4 DUP1 CALLDATASIZE SUB DUP2 ADD SWAP1 PUSH2 0x15B SWAP2 SWAP1 PUSH2 0x6F3 JUMP JUMPDEST PUSH2 0x336 JUMP JUMPDEST PUSH1 0x40 MLOAD PUSH2 0x16D SWAP2 SWAP1 PUSH2 0x450 JUMP JUMPDEST PUSH1 0x40 MLOAD DUP1 SWAP2 SUB SWAP1 RETURN JUMPDEST PUSH2 0x190 PUSH1 0x4 DUP1 CALLDATASIZE SUB DUP2 ADD SWAP1 PUSH2 0x18B SWAP2 SWAP1 PUSH2 0x4A4 JUMP JUMPDEST PUSH2 0x363 JUMP JUMPDEST PUSH1 0x40 MLOAD PUSH2 0x19E SWAP3 SWAP2 SWAP1 PUSH2 0x6C5 JUMP JUMPDEST PUSH1 0x40 MLOAD DUP1 SWAP2 SUB SWAP1 RETURN JUMPDEST PUSH2 0x1C1 PUSH1 0x4 DUP1 CALLDATASIZE SUB DUP2 ADD SWAP1 PUSH2 0x1BC SWAP2 SWAP1 PUSH2 0x4A4 JUMP JUMPDEST PUSH2 0x418 JUMP JUMPDEST PUSH1 0x40 MLOAD PUSH2 0x1CE SWAP2 SWAP1 PUSH2 0x450 JUMP JUMPDEST PUSH1 0x40 MLOAD DUP1 SWAP2 SUB SWAP1 RETURN JUMPDEST PUSH0 DUP1 SLOAD SWAP1 POP SWAP1 JUMP JUMPDEST PUSH0 SLOAD DUP2 JUMP JUMPDEST PUSH0 PUSH1 0x2 SWAP1 POP SWAP1 JUMP JUMPDEST DUP1 PUSH0 DUP2 SWAP1 SSTORE POP POP JUMP JUMPDEST PUSH1 0x5 PUSH1 0x40 MLOAD DUP1 PUSH1 0x40 ADD PUSH1 0x40 MSTORE DUP1 DUP4 DUP2 MSTORE PUSH1 0x20 ADD DUP5 DUP2 MSTORE POP SWAP1 DUP1 PUSH1 0x1 DUP2 SLOAD ADD DUP1 DUP3 SSTORE DUP1 SWAP2 POP POP PUSH1 0x1 SWAP1 SUB SWAP1 PUSH0 MSTORE PUSH1 0x20 PUSH0 KECCAK256 SWAP1 PUSH1 0x2 MUL ADD PUSH0 SWAP1 SWAP2 SWAP1 SWAP2 SWAP1 SWAP2 POP PUSH0 DUP3 ADD MLOAD DUP2 PUSH0 ADD SSTORE PUSH1 0x20 DUP3 ADD MLOAD DUP2 PUSH1 0x1 ADD SWAP1 DUP2 PUSH2 0x24F SWAP2 SWAP1 PUSH2 0x934 JUMP JUMPDEST POP POP POP PUSH1 0x4 DUP2 SWAP1 DUP1 PUSH1 0x1 DUP2 SLOAD ADD DUP1 DUP3 SSTORE DUP1 SWAP2 POP POP PUSH1 0x1 SWAP1 SUB SWAP1 PUSH0 MSTORE PUSH1 0x20 PUSH0 KECCAK256 ADD PUSH0 SWAP1 SWAP2 SWAP1 SWAP2 SWAP1 SWAP2 POP SSTORE DUP1 PUSH1 0x3 DUP4 PUSH1 0x40 MLOAD PUSH2 0x289 SWAP2 SWAP1 PUSH2 0xA3D JUMP JUMPDEST SWAP1 DUP2 MSTORE PUSH1 0x20 ADD PUSH1 0x40 MLOAD DUP1 SWAP2 SUB SWAP1 KECCAK256 DUP2 SWAP1 SSTORE POP POP POP JUMP JUMPDEST PUSH1 0x1 DUP1 PUSH0 ADD SLOAD SWAP1 DUP1 PUSH1 0x1 ADD DUP1 SLOAD PUSH2 0x2B5 SWAP1 PUSH2 0x767 JUMP JUMPDEST DUP1 PUSH1 0x1F ADD PUSH1 0x20 DUP1 SWAP2 DIV MUL PUSH1 0x20 ADD PUSH1 0x40 MLOAD SWAP1 DUP2 ADD PUSH1 0x40 MSTORE DUP1 SWAP3 SWAP2 SWAP1 DUP2 DUP2 MSTORE PUSH1 0x20 ADD DUP3 DUP1 SLOAD PUSH2 0x2E1 SWAP1 PUSH2 0x767 JUMP JUMPDEST DUP1 ISZERO PUSH2 0x32C JUMPI DUP1 PUSH1 0x1F LT PUSH2 0x303 JUMPI PUSH2 0x100 DUP1 DUP4 SLOAD DIV MUL DUP4 MSTORE SWAP2 PUSH1 0x20 ADD SWAP2 PUSH2 0x32C JUMP JUMPDEST DUP3 ADD SWAP2 SWAP1 PUSH0 MSTORE PUSH1 0x20 PUSH0 KECCAK256 SWAP1 JUMPDEST DUP2 SLOAD DUP2 MSTORE SWAP1 PUSH1 0x1 ADD SWAP1 PUSH1 0x20 ADD DUP1 DUP4 GT PUSH2 0x30F JUMPI DUP3 SWAP1 SUB PUSH1 0x1F AND DUP3 ADD SWAP2 JUMPDEST POP POP POP POP POP SWAP1 POP DUP3 JUMP JUMPDEST PUSH1 0x3 DUP2 DUP1 MLOAD PUSH1 0x20 DUP2 ADD DUP3 ADD DUP1 MLOAD DUP5 DUP3 MSTORE PUSH1 0x20 DUP4 ADD PUSH1 0x20 DUP6 ADD KECCAK256 DUP2 DUP4 MSTORE DUP1 SWAP6 POP POP POP POP POP POP PUSH0 SWAP2 POP SWAP1 POP SLOAD DUP2 JUMP JUMPDEST PUSH1 0x5 DUP2 DUP2 SLOAD DUP2 LT PUSH2 0x372 JUMPI PUSH0 DUP1 REVERT JUMPDEST SWAP1 PUSH0 MSTORE PUSH1 0x20 PUSH0 KECCAK256 SWAP1 PUSH1 0x2 MUL ADD PUSH0 SWAP2 POP SWAP1 POP DUP1 PUSH0 ADD SLOAD SWAP1 DUP1 PUSH1 0x1 ADD DUP1 SLOAD PUSH2 0x397 SWAP1 PUSH2 0x767 JUMP JUMPDEST DUP1 PUSH1 0x1F ADD PUSH1 0x20 DUP1 SWAP2 DIV MUL PUSH1 0x20 ADD PUSH1 0x40 MLOAD SWAP1 DUP2 ADD PUSH1 0x40 MSTORE DUP1 SWAP3 SWAP2 SWAP1 DUP2 DUP2 MSTORE PUSH1 0x20 ADD DUP3 DUP1 SLOAD PUSH2 0x3C3 SWAP1 PUSH2 0x767 JUMP JUMPDEST DUP1 ISZERO PUSH2 0x40E JUMPI DUP1 PUSH1 0x1F LT PUSH2 0x3E5 JUMPI PUSH2 0x100 DUP1 DUP4 SLOAD DIV MUL DUP4 MSTORE SWAP2 PUSH1 0x20 ADD SWAP2 PUSH2 0x40E JUMP JUMPDEST DUP3 ADD SWAP2 SWAP1 PUSH0 MSTORE PUSH1 0x20 PUSH0 KECCAK256 SWAP1 JUMPDEST DUP2 SLOAD DUP2 MSTORE SWAP1 PUSH1 0x1 ADD SWAP1 PUSH1 0x20 ADD DUP1 DUP4 GT PUSH2 0x3F1 JUMPI DUP3 SWAP1 SUB PUSH1 0x1F AND DUP3 ADD SWAP2 JUMPDEST POP POP POP POP POP SWAP1 POP DUP3 JUMP JUMPDEST PUSH1 0x4 DUP2 DUP2 SLOAD DUP2 LT PUSH2 0x427 JUMPI PUSH0 DUP1 REVERT JUMPDEST SWAP1 PUSH0 MSTORE PUSH1 0x20 PUSH0 KECCAK256 ADD PUSH0 SWAP2 POP SWAP1 POP SLOAD DUP2 JUMP JUMPDEST PUSH0 DUP2 SWAP1 POP SWAP2 SWAP1 POP JUMP JUMPDEST PUSH2 0x44A DUP2 PUSH2 0x438 JUMP JUMPDEST DUP3 MSTORE POP POP JUMP JUMPDEST PUSH0 PUSH1 0x20 DUP3 ADD SWAP1 POP PUSH2 0x463 PUSH0 DUP4 ADD DUP5 PUSH2 0x441 JUMP JUMPDEST SWAP3 SWAP2 POP POP JUMP JUMPDEST PUSH0 PUSH1 0x40 MLOAD SWAP1 POP SWAP1 JUMP JUMPDEST PUSH0 DUP1 REVERT JUMPDEST PUSH0 DUP1 REVERT JUMPDEST PUSH2 0x483 DUP2 PUSH2 0x438 JUMP JUMPDEST DUP2 EQ PUSH2 0x48D JUMPI PUSH0 DUP1 REVERT JUMPDEST POP JUMP JUMPDEST PUSH0 DUP2 CALLDATALOAD SWAP1 POP PUSH2 0x49E DUP2 PUSH2 0x47A JUMP JUMPDEST SWAP3 SWAP2 POP POP JUMP JUMPDEST PUSH0 PUSH1 0x20 DUP3 DUP5 SUB SLT ISZERO PUSH2 0x4B9 JUMPI PUSH2 0x4B8 PUSH2 0x472 JUMP JUMPDEST JUMPDEST PUSH0 PUSH2 0x4C6 DUP5 DUP3 DUP6 ADD PUSH2 0x490 JUMP JUMPDEST SWAP2 POP POP SWAP3 SWAP2 POP POP JUMP JUMPDEST PUSH0 DUP1 REVERT JUMPDEST PUSH0 DUP1 REVERT JUMPDEST PUSH0 PUSH1 0x1F NOT PUSH1 0x1F DUP4 ADD AND SWAP1 POP SWAP2 SWAP1 POP JUMP JUMPDEST PUSH32 0x4E487B7100000000000000000000000000000000000000000000000000000000 PUSH0 MSTORE PUSH1 0x41 PUSH1 0x4 MSTORE PUSH1 0x24 PUSH0 REVERT JUMPDEST PUSH2 0x51D DUP3 PUSH2 0x4D7 JUMP JUMPDEST DUP2 ADD DUP2 DUP2 LT PUSH8 0xFFFFFFFFFFFFFFFF DUP3 GT OR ISZERO PUSH2 0x53C JUMPI PUSH2 0x53B PUSH2 0x4E7 JUMP JUMPDEST JUMPDEST DUP1 PUSH1 0x40 MSTORE POP POP POP JUMP JUMPDEST PUSH0 PUSH2 0x54E PUSH2 0x469 JUMP JUMPDEST SWAP1 POP PUSH2 0x55A DUP3 DUP3 PUSH2 0x514 JUMP JUMPDEST SWAP2 SWAP1 POP JUMP JUMPDEST PUSH0 PUSH8 0xFFFFFFFFFFFFFFFF DUP3 GT ISZERO PUSH2 0x579 JUMPI PUSH2 0x578 PUSH2 0x4E7 JUMP JUMPDEST JUMPDEST PUSH2 0x582 DUP3 PUSH2 0x4D7 JUMP JUMPDEST SWAP1 POP PUSH1 0x20 DUP2 ADD SWAP1 POP SWAP2 SWAP1 POP JUMP JUMPDEST DUP3 DUP2 DUP4 CALLDATACOPY PUSH0 DUP4 DUP4 ADD MSTORE POP POP POP JUMP JUMPDEST PUSH0 PUSH2 0x5AF PUSH2 0x5AA DUP5 PUSH2 0x55F JUMP JUMPDEST PUSH2 0x545 JUMP JUMPDEST SWAP1 POP DUP3 DUP2 MSTORE PUSH1 0x20 DUP2 ADD DUP5 DUP5 DUP5 ADD GT ISZERO PUSH2 0x5CB JUMPI PUSH2 0x5CA PUSH2 0x4D3 JUMP JUMPDEST JUMPDEST PUSH2 0x5D6 DUP5 DUP3 DUP6 PUSH2 0x58F JUMP JUMPDEST POP SWAP4 SWAP3 POP POP POP JUMP JUMPDEST PUSH0 DUP3 PUSH1 0x1F DUP4 ADD SLT PUSH2 0x5F2 JUMPI PUSH2 0x5F1 PUSH2 0x4CF JUMP JUMPDEST JUMPDEST DUP2 CALLDATALOAD PUSH2 0x602 DUP5 DUP3 PUSH1 0x20 DUP7 ADD PUSH2 0x59D JUMP JUMPDEST SWAP2 POP POP SWAP3 SWAP2 POP POP JUMP JUMPDEST PUSH0 DUP1 PUSH1 0x40 DUP4 DUP6 SUB SLT ISZERO PUSH2 0x621 JUMPI PUSH2 0x620 PUSH2 0x472 JUMP JUMPDEST JUMPDEST PUSH0 DUP4 ADD CALLDATALOAD PUSH8 0xFFFFFFFFFFFFFFFF DUP2 GT ISZERO PUSH2 0x63E JUMPI PUSH2 0x63D PUSH2 0x476 JUMP JUMPDEST JUMPDEST PUSH2 0x64A DUP6 DUP3 DUP7 ADD PUSH2 0x5DE JUMP JUMPDEST SWAP3 POP POP PUSH1 0x20 PUSH2 0x65B DUP6 DUP3 DUP7 ADD PUSH2 0x490 JUMP JUMPDEST SWAP2 POP POP SWAP3 POP SWAP3 SWAP1 POP JUMP JUMPDEST PUSH0 DUP2 MLOAD SWAP1 POP SWAP2 SWAP1 POP JUMP JUMPDEST PUSH0 DUP3 DUP3 MSTORE PUSH1 0x20 DUP3 ADD SWAP1 POP SWAP3 SWAP2 POP POP JUMP JUMPDEST DUP3 DUP2 DUP4 MCOPY PUSH0 DUP4 DUP4 ADD MSTORE POP POP POP JUMP JUMPDEST PUSH0 PUSH2 0x697 DUP3 PUSH2 0x665 JUMP JUMPDEST PUSH2 0x6A1 DUP2 DUP6 PUSH2 0x66F JUMP JUMPDEST SWAP4 POP PUSH2 0x6B1 DUP2 DUP6 PUSH1 0x20 DUP7 ADD PUSH2 0x67F JUMP JUMPDEST PUSH2 0x6BA DUP2 PUSH2 0x4D7 JUMP JUMPDEST DUP5 ADD SWAP2 POP POP SWAP3 SWAP2 POP POP JUMP JUMPDEST PUSH0 PUSH1 0x40 DUP3 ADD SWAP1 POP PUSH2 0x6D8 PUSH0 DUP4 ADD DUP6 PUSH2 0x441 JUMP JUMPDEST DUP2 DUP2 SUB PUSH1 0x20 DUP4 ADD MSTORE PUSH2 0x6EA DUP2 DUP5 PUSH2 0x68D JUMP JUMPDEST SWAP1 POP SWAP4 SWAP3 POP POP POP JUMP JUMPDEST PUSH0 PUSH1 0x20 DUP3 DUP5 SUB SLT ISZERO PUSH2 0x708 JUMPI PUSH2 0x707 PUSH2 0x472 JUMP JUMPDEST JUMPDEST PUSH0 DUP3 ADD CALLDATALOAD PUSH8 0xFFFFFFFFFFFFFFFF DUP2 GT ISZERO PUSH2 0x725 JUMPI PUSH2 0x724 PUSH2 0x476 JUMP JUMPDEST JUMPDEST PUSH2 0x731 DUP5 DUP3 DUP6 ADD PUSH2 0x5DE JUMP JUMPDEST SWAP2 POP POP SWAP3 SWAP2 POP POP JUMP JUMPDEST PUSH32 0x4E487B7100000000000000000000000000000000000000000000000000000000 PUSH0 MSTORE PUSH1 0x22 PUSH1 0x4 MSTORE PUSH1 0x24 PUSH0 REVERT JUMPDEST PUSH0 PUSH1 0x2 DUP3 DIV SWAP1 POP PUSH1 0x1 DUP3 AND DUP1 PUSH2 0x77E JUMPI PUSH1 0x7F DUP3 AND SWAP2 POP JUMPDEST PUSH1 0x20 DUP3 LT DUP2 SUB PUSH2 0x791 JUMPI PUSH2 0x790 PUSH2 0x73A JUMP JUMPDEST JUMPDEST POP SWAP2 SWAP1 POP JUMP JUMPDEST PUSH0 DUP2 SWAP1 POP DUP2 PUSH0 MSTORE PUSH1 0x20 PUSH0 KECCAK256 SWAP1 POP SWAP2 SWAP1 POP JUMP JUMPDEST PUSH0 PUSH1 0x20 PUSH1 0x1F DUP4 ADD DIV SWAP1 POP SWAP2 SWAP1 POP JUMP JUMPDEST PUSH0 DUP3 DUP3 SHL SWAP1 POP SWAP3 SWAP2 POP POP JUMP JUMPDEST PUSH0 PUSH1 0x8 DUP4 MUL PUSH2 0x7F3 PUSH32 0xFFFFFFFFFFFFFFFFFFFFFFFFFFFFFFFFFFFFFFFFFFFFFFFFFFFFFFFFFFFFFFFF DUP3 PUSH2 0x7B8 JUMP JUMPDEST PUSH2 0x7FD DUP7 DUP4 PUSH2 0x7B8 JUMP JUMPDEST SWAP6 POP DUP1 NOT DUP5 AND SWAP4 POP DUP1 DUP7 AND DUP5 OR SWAP3 POP POP POP SWAP4 SWAP3 POP POP POP JUMP JUMPDEST PUSH0 DUP2 SWAP1 POP SWAP2 SWAP1 POP JUMP JUMPDEST PUSH0 PUSH2 0x838 PUSH2 0x833 PUSH2 0x82E DUP5 PUSH2 0x438 JUMP JUMPDEST PUSH2 0x815 JUMP JUMPDEST PUSH2 0x438 JUMP JUMPDEST SWAP1 POP SWAP2 SWAP1 POP JUMP JUMPDEST PUSH0 DUP2 SWAP1 POP SWAP2 SWAP1 POP JUMP JUMPDEST PUSH2 0x851 DUP4 PUSH2 0x81E JUMP JUMPDEST PUSH2 0x865 PUSH2 0x85D DUP3 PUSH2 0x83F JUMP JUMPDEST DUP5 DUP5 SLOAD PUSH2 0x7C4 JUMP JUMPDEST DUP3 SSTORE POP POP POP POP JUMP JUMPDEST PUSH0 SWAP1 JUMP JUMPDEST PUSH2 0x879 PUSH2 0x86D JUMP JUMPDEST PUSH2 0x884 DUP2 DUP5 DUP5 PUSH2 0x848 JUMP JUMPDEST POP POP POP JUMP JUMPDEST JUMPDEST DUP2 DUP2 LT ISZERO PUSH2 0x8A7 JUMPI PUSH2 0x89C PUSH0 DUP3 PUSH2 0x871 JUMP JUMPDEST PUSH1 0x1 DUP2 ADD SWAP1 POP PUSH2 0x88A JUMP JUMPDEST POP POP JUMP JUMPDEST PUSH1 0x1F DUP3 GT ISZERO PUSH2 0x8EC JUMPI PUSH2 0x8BD DUP2 PUSH2 0x797 JUMP JUMPDEST PUSH2 0x8C6 DUP5 PUSH2 0x7A9 JUMP JUMPDEST DUP2 ADD PUSH1 0x20 DUP6 LT ISZERO PUSH2 0x8D5 JUMPI DUP2 SWAP1 POP JUMPDEST PUSH2 0x8E9 PUSH2 0x8E1 DUP6 PUSH2 0x7A9 JUMP JUMPDEST DUP4 ADD DUP3 PUSH2 0x889 JUMP JUMPDEST POP POP JUMPDEST POP POP POP JUMP JUMPDEST PUSH0 DUP3 DUP3 SHR SWAP1 POP SWAP3 SWAP2 POP POP JUMP JUMPDEST PUSH0 PUSH2 0x90C PUSH0 NOT DUP5 PUSH1 0x8 MUL PUSH2 0x8F1 JUMP JUMPDEST NOT DUP1 DUP4 AND SWAP2 POP POP SWAP3 SWAP2 POP POP JUMP JUMPDEST PUSH0 PUSH2 0x924 DUP4 DUP4 PUSH2 0x8FD JUMP JUMPDEST SWAP2 POP DUP3 PUSH1 0x2 MUL DUP3 OR SWAP1 POP SWAP3 SWAP2 POP POP JUMP JUMPDEST PUSH2 0x93D DUP3 PUSH2 0x665 JUMP JUMPDEST PUSH8 0xFFFFFFFFFFFFFFFF DUP2 GT ISZERO PUSH2 0x956 JUMPI PUSH2 0x955 PUSH2 0x4E7 JUMP JUMPDEST JUMPDEST PUSH2 0x960 DUP3 SLOAD PUSH2 0x767 JUMP JUMPDEST PUSH2 0x96B DUP3 DUP3 DUP6 PUSH2 0x8AB JUMP JUMPDEST PUSH0 PUSH1 0x20 SWAP1 POP PUSH1 0x1F DUP4 GT PUSH1 0x1 DUP2 EQ PUSH2 0x99C JUMPI PUSH0 DUP5 ISZERO PUSH2 0x98A JUMPI DUP3 DUP8 ADD MLOAD SWAP1 POP JUMPDEST PUSH2 0x994 DUP6 DUP3 PUSH2 0x919 JUMP JUMPDEST DUP7 SSTORE POP PUSH2 0x9FB JUMP JUMPDEST PUSH1 0x1F NOT DUP5 AND PUSH2 0x9AA DUP7 PUSH2 0x797 JUMP JUMPDEST PUSH0 JUMPDEST DUP3 DUP2 LT ISZERO PUSH2 0x9D1 JUMPI DUP5 DUP10 ADD MLOAD DUP3 SSTORE PUSH1 0x1 DUP3 ADD SWAP2 POP PUSH1 0x20 DUP6 ADD SWAP5 POP PUSH1 0x20 DUP2 ADD SWAP1 POP PUSH2 0x9AC JUMP JUMPDEST DUP7 DUP4 LT ISZERO PUSH2 0x9EE JUMPI DUP5 DUP10 ADD MLOAD PUSH2 0x9EA PUSH1 0x1F DUP10 AND DUP3 PUSH2 0x8FD JUMP JUMPDEST DUP4 SSTORE POP JUMPDEST PUSH1 0x1 PUSH1 0x2 DUP9 MUL ADD DUP9 SSTORE POP POP POP JUMPDEST POP POP POP POP POP POP JUMP JUMPDEST PUSH0 DUP2 SWAP1 POP SWAP3 SWAP2 POP POP JUMP JUMPDEST PUSH0 PUSH2 0xA17 DUP3 PUSH2 0x665 JUMP JUMPDEST PUSH2 0xA21 DUP2 DUP6 PUSH2 0xA03 JUMP JUMPDEST SWAP4 POP PUSH2 0xA31 DUP2 DUP6 PUSH1 0x20 DUP7 ADD PUSH2 0x67F JUMP JUMPDEST DUP1 DUP5 ADD SWAP2 POP POP SWAP3 SWAP2 POP POP JUMP JUMPDEST PUSH0 PUSH2 0xA48 DUP3 DUP5 PUSH2 0xA0D JUMP JUMPDEST SWAP2 POP DUP2 SWAP1 POP SWAP3 SWAP2 POP POP JUMP INVALID LOG2 PUSH5 0x6970667358 0x22 SLT KECCAK256 0xB5 0xC5 SWAP6 SWAP11 0xC6 LT SUB 0x23 CALLER 0xFC 0xC3 0xDA 0xCB DUP2 0xA6 ADDRESS 0xE2 DUP12 TSTORE 0x4F ADDRESS SSTORE SGT 0xE SSTORE BLOBHASH PUSH2 0x939E 0xBD 0xB0 SLOAD PUSH5 0x736F6C6343 STOP ADDMOD BYTE STOP CALLER "
				},
				"gasEstimates": {
					"creation": {
						"codeDepositCost": "539400",
						"executionCost": "infinite",
						"totalCost": "infinite"
					},
					"external": {
						"add()": "377",
						"addPerson(string,uint256)": "infinite",
						"favoriteNumber()": "2447",
						"favoriteNumbersList(uint256)": "infinite",
						"nameToFavoriteNumber(string)": "infinite",
						"people(uint256)": "infinite",
						"person()": "infinite",
						"retrieve()": "2433",
						"store(uint256)": "22581"
					}
				},
				"methodIdentifiers": {
					"add()": "4f2be91f",
					"addPerson(string,uint256)": "6f760f41",
					"favoriteNumber()": "471f7cdf",
					"favoriteNumbersList(uint256)": "cb321447",
					"nameToFavoriteNumber(string)": "8bab8dd5",
					"people(uint256)": "9e7a13ad",
					"person()": "77ec2b55",
					"retrieve()": "2e64cec1",
					"store(uint256)": "6057361d"
				}
			},
			"storageLayout": {
				"storage": [
					{
						"astId": 4,
						"contract": "contracts/SimpleStorage.sol:SimpleStorage",
						"label": "favoriteNumber",
						"offset": 0,
						"slot": "0",
						"type": "t_uint256"
					},
					{
						"astId": 11,
						"contract": "contracts/SimpleStorage.sol:SimpleStorage",
						"label": "person",
						"offset": 0,
						"slot": "1",
						"type": "t_struct(People)20_storage"
					},
					{
						"astId": 15,
						"contract": "contracts/SimpleStorage.sol:SimpleStorage",
						"label": "nameToFavoriteNumber",
						"offset": 0,
						"slot": "3",
						"type": "t_mapping(t_string_memory_ptr,t_uint256)"
					},
					{
						"astId": 23,
						"contract": "contracts/SimpleStorage.sol:SimpleStorage",
						"label": "favoriteNumbersList",
						"offset": 0,
						"slot": "4",
						"type": "t_array(t_uint256)dyn_storage"
					},
					{
						"astId": 27,
						"contract": "contracts/SimpleStorage.sol:SimpleStorage",
						"label": "people",
						"offset": 0,
						"slot": "5",
						"type": "t_array(t_struct(People)20_storage)dyn_storage"
					}
				],
				"types": {
					"t_array(t_struct(People)20_storage)dyn_storage": {
						"base": "t_struct(People)20_storage",
						"encoding": "dynamic_array",
						"label": "struct SimpleStorage.People[]",
						"numberOfBytes": "32"
					},
					"t_array(t_uint256)dyn_storage": {
						"base": "t_uint256",
						"encoding": "dynamic_array",
						"label": "uint256[]",
						"numberOfBytes": "32"
					},
					"t_mapping(t_string_memory_ptr,t_uint256)": {
						"encoding": "mapping",
						"key": "t_string_memory_ptr",
						"label": "mapping(string => uint256)",
						"numberOfBytes": "32",
						"value": "t_uint256"
					},
					"t_string_memory_ptr": {
						"encoding": "bytes",
						"label": "string",
						"numberOfBytes": "32"
					},
					"t_string_storage": {
						"encoding": "bytes",
						"label": "string",
						"numberOfBytes": "32"
					},
					"t_struct(People)20_storage": {
						"encoding": "inplace",
						"label": "struct SimpleStorage.People",
						"members": [
							{
								"astId": 17,
								"contract": "contracts/SimpleStorage.sol:SimpleStorage",
								"label": "favoriteNumber",
								"offset": 0,
								"slot": "0",
								"type": "t_uint256"
							},
							{
								"astId": 19,
								"contract": "contracts/SimpleStorage.sol:SimpleStorage",
								"label": "name",
								"offset": 0,
								"slot": "1",
								"type": "t_string_storage"
							}
						],
						"numberOfBytes": "64"
					},
					"t_uint256": {
						"encoding": "inplace",
						"label": "uint256",
						"numberOfBytes": "32"
					}
				}
			},
			"userdoc": {
				"kind": "user",
				"methods": {},
				"version": 1
			}
		}
	}
}